{
  "contractName": "Swap",
  "abi": [
    {
      "inputs": [
        {
          "internalType": "string",
          "name": "name_",
          "type": "string"
        },
        {
          "internalType": "contract Token",
          "name": "token1_",
          "type": "address"
        },
        {
          "internalType": "contract Token",
          "name": "token2_",
          "type": "address"
        }
      ],
      "stateMutability": "nonpayable",
      "type": "constructor"
    },
    {
      "anonymous": false,
      "inputs": [
        {
          "indexed": true,
          "internalType": "address",
          "name": "previousAdmin",
          "type": "address"
        },
        {
          "indexed": true,
          "internalType": "address",
          "name": "newAdmin",
          "type": "address"
        }
      ],
      "name": "AdminChanged",
      "type": "event"
    },
    {
      "anonymous": false,
      "inputs": [
        {
          "indexed": true,
          "internalType": "string",
          "name": "name_",
          "type": "string"
        },
        {
          "indexed": true,
          "internalType": "address",
          "name": "swap_",
          "type": "address"
        }
      ],
      "name": "SwapDeployed",
      "type": "event"
    },
    {
      "inputs": [],
      "name": "name",
      "outputs": [
        {
          "internalType": "string",
          "name": "",
          "type": "string"
        }
      ],
      "stateMutability": "view",
      "type": "function"
    },
    {
      "inputs": [
        {
          "internalType": "uint256",
          "name": "amount",
          "type": "uint256"
        }
      ],
      "name": "swap",
      "outputs": [],
      "stateMutability": "nonpayable",
      "type": "function"
    },
    {
      "inputs": [
        {
          "internalType": "uint256",
          "name": "amount",
          "type": "uint256"
        }
      ],
      "name": "unswap",
      "outputs": [],
      "stateMutability": "nonpayable",
      "type": "function"
    }
  ],
  "bytecode": "0x60806040523480156200001157600080fd5b506040516200137838038062001378833981810160405281019062000037919062000479565b3073ffffffffffffffffffffffffffffffffffffffff16836040516200005e91906200055d565b60405180910390207f53825a0bd9819b967b6cb6fbc636e04cfe136b968b9e6285167471e741932dc560405160405180910390a36000339050620000a8816200025d60201b60201c565b8360019080519060200190620000c09291906200031d565b5082600260006101000a81548173ffffffffffffffffffffffffffffffffffffffff021916908373ffffffffffffffffffffffffffffffffffffffff16021790555081600360006101000a81548173ffffffffffffffffffffffffffffffffffffffff021916908373ffffffffffffffffffffffffffffffffffffffff1602179055508273ffffffffffffffffffffffffffffffffffffffff166318160ddd6040518163ffffffff1660e01b815260040160206040518083038186803b1580156200018a57600080fd5b505afa1580156200019f573d6000803e3d6000fd5b505050506040513d601f19601f82011682018060405250810190620001c59190620004f4565b6006819055508173ffffffffffffffffffffffffffffffffffffffff166318160ddd6040518163ffffffff1660e01b815260040160206040518083038186803b1580156200021257600080fd5b505afa15801562000227573d6000803e3d6000fd5b505050506040513d601f19601f820116820180604052508101906200024d9190620004f4565b6007819055505050505062000796565b80600060016101000a81548173ffffffffffffffffffffffffffffffffffffffff021916908373ffffffffffffffffffffffffffffffffffffffff1602179055508073ffffffffffffffffffffffffffffffffffffffff16600060019054906101000a900473ffffffffffffffffffffffffffffffffffffffff1673ffffffffffffffffffffffffffffffffffffffff167f7e644d79422f17c01e4894b5f4f588d331ebfa28653d42ae832dc59e38c9798f60405160405180910390a350565b8280546200032b9062000673565b90600052602060002090601f0160209004810192826200034f57600085556200039b565b82601f106200036a57805160ff19168380011785556200039b565b828001600101855582156200039b579182015b828111156200039a5782518255916020019190600101906200037d565b5b509050620003aa9190620003ae565b5090565b5b80821115620003c9576000816000905550600101620003af565b5090565b6000620003e4620003de846200059f565b62000576565b90508281526020810184848401111562000403576200040262000742565b5b620004108482856200063d565b509392505050565b600081519050620004298162000762565b92915050565b600082601f8301126200044757620004466200073d565b5b815162000459848260208601620003cd565b91505092915050565b60008151905062000473816200077c565b92915050565b6000806000606084860312156200049557620004946200074c565b5b600084015167ffffffffffffffff811115620004b657620004b562000747565b5b620004c4868287016200042f565b9350506020620004d78682870162000418565b9250506040620004ea8682870162000418565b9150509250925092565b6000602082840312156200050d576200050c6200074c565b5b60006200051d8482850162000462565b91505092915050565b60006200053382620005d5565b6200053f8185620005e0565b9350620005518185602086016200063d565b80840191505092915050565b60006200056b828462000526565b915081905092915050565b60006200058262000595565b9050620005908282620006a9565b919050565b6000604051905090565b600067ffffffffffffffff821115620005bd57620005bc6200070e565b5b620005c88262000751565b9050602081019050919050565b600081519050919050565b600081905092915050565b6000620005f88262000613565b9050919050565b60006200060c82620005eb565b9050919050565b600073ffffffffffffffffffffffffffffffffffffffff82169050919050565b6000819050919050565b60005b838110156200065d57808201518184015260208101905062000640565b838111156200066d576000848401525b50505050565b600060028204905060018216806200068c57607f821691505b60208210811415620006a357620006a2620006df565b5b50919050565b620006b48262000751565b810181811067ffffffffffffffff82111715620006d657620006d56200070e565b5b80604052505050565b7f4e487b7100000000000000000000000000000000000000000000000000000000600052602260045260246000fd5b7f4e487b7100000000000000000000000000000000000000000000000000000000600052604160045260246000fd5b600080fd5b600080fd5b600080fd5b600080fd5b6000601f19601f8301169050919050565b6200076d81620005ff565b81146200077957600080fd5b50565b620007878162000633565b81146200079357600080fd5b50565b610bd280620007a66000396000f3fe608060405234801561001057600080fd5b50600436106100415760003560e01c806306fdde0314610046578063171b32761461006457806394b918de14610080575b600080fd5b61004e61009c565b60405161005b91906109ac565b60405180910390f35b61007e600480360381019061007991906108ab565b61012a565b005b61009a600480360381019061009591906108ab565b61036b565b005b600180546100a990610aa5565b80601f01602080910402602001604051908101604052809291908181526020018280546100d590610aa5565b80156101225780601f106100f757610100808354040283529160200191610122565b820191906000526020600020905b81548152906001019060200180831161010557829003601f168201915b505050505081565b600260ff1660008054906101000a900460ff1660ff161415610181576040517f08c379a0000000000000000000000000000000000000000000000000000000008152600401610178906109ce565b60405180910390fd5b60026000806101000a81548160ff021916908360ff160217905550600260009054906101000a900473ffffffffffffffffffffffffffffffffffffffff1673ffffffffffffffffffffffffffffffffffffffff166352ec8529600360009054906101000a900473ffffffffffffffffffffffffffffffffffffffff1630846040518463ffffffff1660e01b815260040161021d93929190610975565b602060405180830381600087803b15801561023757600080fd5b505af115801561024b573d6000803e3d6000fd5b505050506040513d601f19601f8201168201806040525081019061026f919061087e565b50600360009054906101000a900473ffffffffffffffffffffffffffffffffffffffff1673ffffffffffffffffffffffffffffffffffffffff166352ec8529600260009054906101000a900473ffffffffffffffffffffffffffffffffffffffff1630846040518463ffffffff1660e01b81526004016102f193929190610975565b602060405180830381600087803b15801561030b57600080fd5b505af115801561031f573d6000803e3d6000fd5b505050506040513d601f19601f82011682018060405250810190610343919061087e565b5061034d816105ac565b60016000806101000a81548160ff021916908360ff16021790555050565b600260ff1660008054906101000a900460ff1660ff1614156103c2576040517f08c379a00000000000000000000000000000000000000000000000000000000081526004016103b9906109ce565b60405180910390fd5b60026000806101000a81548160ff021916908360ff160217905550600260009054906101000a900473ffffffffffffffffffffffffffffffffffffffff1673ffffffffffffffffffffffffffffffffffffffff166352ec8529600260009054906101000a900473ffffffffffffffffffffffffffffffffffffffff1630846040518463ffffffff1660e01b815260040161045e93929190610975565b602060405180830381600087803b15801561047857600080fd5b505af115801561048c573d6000803e3d6000fd5b505050506040513d601f19601f820116820180604052508101906104b0919061087e565b50600360009054906101000a900473ffffffffffffffffffffffffffffffffffffffff1673ffffffffffffffffffffffffffffffffffffffff166352ec8529600360009054906101000a900473ffffffffffffffffffffffffffffffffffffffff1630846040518463ffffffff1660e01b815260040161053293929190610975565b602060405180830381600087803b15801561054c57600080fd5b505af1158015610560573d6000803e3d6000fd5b505050506040513d601f19601f82011682018060405250810190610584919061087e565b5061058e81610693565b60016000806101000a81548160ff021916908360ff16021790555050565b61061e600260009054906101000a900473ffffffffffffffffffffffffffffffffffffffff16600360009054906101000a900473ffffffffffffffffffffffffffffffffffffffff16600260009054906101000a900473ffffffffffffffffffffffffffffffffffffffff168461077a565b610690600360009054906101000a900473ffffffffffffffffffffffffffffffffffffffff16600260009054906101000a900473ffffffffffffffffffffffffffffffffffffffff16600360009054906101000a900473ffffffffffffffffffffffffffffffffffffffff168461077a565b50565b610705600260009054906101000a900473ffffffffffffffffffffffffffffffffffffffff16600260009054906101000a900473ffffffffffffffffffffffffffffffffffffffff16600360009054906101000a900473ffffffffffffffffffffffffffffffffffffffff168461077a565b610777600360009054906101000a900473ffffffffffffffffffffffffffffffffffffffff16600360009054906101000a900473ffffffffffffffffffffffffffffffffffffffff16600260009054906101000a900473ffffffffffffffffffffffffffffffffffffffff168461077a565b50565b60008473ffffffffffffffffffffffffffffffffffffffff166323b872dd8585856040518463ffffffff1660e01b81526004016107b993929190610975565b602060405180830381600087803b1580156107d357600080fd5b505af11580156107e7573d6000803e3d6000fd5b505050506040513d601f19601f8201168201806040525081019061080b919061087e565b90508061084d576040517f08c379a0000000000000000000000000000000000000000000000000000000008152600401610844906109ee565b60405180910390fd5b5050505050565b60008151905061086381610b6e565b92915050565b60008135905061087881610b85565b92915050565b60006020828403121561089457610893610b06565b5b60006108a284828501610854565b91505092915050565b6000602082840312156108c1576108c0610b06565b5b60006108cf84828501610869565b91505092915050565b6108e181610a2a565b82525050565b60006108f282610a0e565b6108fc8185610a19565b935061090c818560208601610a72565b61091581610b0b565b840191505092915050565b600061092d600e83610a19565b915061093882610b1c565b602082019050919050565b6000610950601683610a19565b915061095b82610b45565b602082019050919050565b61096f81610a68565b82525050565b600060608201905061098a60008301866108d8565b61099760208301856108d8565b6109a46040830184610966565b949350505050565b600060208201905081810360008301526109c681846108e7565b905092915050565b600060208201905081810360008301526109e781610920565b9050919050565b60006020820190508181036000830152610a0781610943565b9050919050565b600081519050919050565b600082825260208201905092915050565b6000610a3582610a48565b9050919050565b60008115159050919050565b600073ffffffffffffffffffffffffffffffffffffffff82169050919050565b6000819050919050565b60005b83811015610a90578082015181840152602081019050610a75565b83811115610a9f576000848401525b50505050565b60006002820490506001821680610abd57607f821691505b60208210811415610ad157610ad0610ad7565b5b50919050565b7f4e487b7100000000000000000000000000000000000000000000000000000000600052602260045260246000fd5b600080fd5b6000601f19601f8301169050919050565b7f5265656e7472616e742063616c6c000000000000000000000000000000000000600082015250565b7f546f6b656e207472616e73666572206661696c65642e00000000000000000000600082015250565b610b7781610a3c565b8114610b8257600080fd5b50565b610b8e81610a68565b8114610b9957600080fd5b5056fea2646970667358221220b2e8b4a8770a26ee73addc38bca962107f3cf74da2341640424bbd779fc5728264736f6c63430008070033",
  "immutableReferences": {},
  "source": "//SPDX-License-Identifier: UNLICENSED\npragma solidity ^0.8.0;\n\nimport './Token.sol';\n\ncontract Swap {\n    using Address for address;\n    using SafeMath for uint256;\n    using Strings for string;\n\n    uint8 private constant _NOT_ENTERED = 1;\n    uint8 private constant _ENTERED = 2;\n    uint8 private _status;\n\n    address private _admin;\n\n    string public name;\n\n    Token private _token1;\n    Token private _token2;\n\n    address private _token1Address;\n    address private _token2Address;\n\n    uint256 private _token1TotalSupply;\n    uint256 private _token2TotalSupply;\n\n    // Events\n    event AdminChanged(address indexed previousAdmin, address indexed newAdmin);\n    event SwapDeployed(string indexed name_, address indexed swap_);\n\n    modifier reentrancyProtection() {\n        require(_status != _ENTERED, 'Reentrant call');\n        _status = _ENTERED;\n        _;\n        _status = _NOT_ENTERED;\n    }\n\n    constructor(\n        string memory name_,\n        Token token1_,\n        Token token2_\n    ) {\n        emit SwapDeployed(name_, address(this));\n        address admin_ = msg.sender;\n        setAdmin(admin_);\n        name = name_;\n        _token1 = token1_;\n        _token2 = token2_;\n        _token1TotalSupply = token1_.totalSupply();\n        _token2TotalSupply = token2_.totalSupply();\n    }\n\n    function swap(uint256 amount) external reentrancyProtection {\n        _token1.approveFrom(address(_token1), address(this), amount);\n        _token2.approveFrom(address(_token2), address(this), amount);\n        _swap(amount);\n    }\n\n    function unswap(uint256 amount) external reentrancyProtection {\n        _token1.approveFrom(address(_token2), address(this), amount);\n        _token2.approveFrom(address(_token1), address(this), amount);\n        _unswap(amount);\n    }\n\n    function setAdmin(address admin_) internal {\n        _admin = admin_;\n        emit AdminChanged(_admin, admin_);\n    }\n\n    function _swap(uint256 amount) internal {\n        _safeTransferFrom(_token1, address(_token1), address(_token2), amount);\n        _safeTransferFrom(_token2, address(_token2), address(_token1), amount);\n    }\n\n    function _unswap(uint256 amount) internal {\n        _safeTransferFrom(_token1, address(_token2), address(_token1), amount);\n        _safeTransferFrom(_token2, address(_token1), address(_token2), amount);\n    }\n\n    function _safeTransferFrom(\n        Token token,\n        address sender,\n        address receiver,\n        uint256 amount\n    ) internal {\n        bool sent = token.transferFrom(sender, receiver, amount);\n        require(sent, 'Token transfer failed.');\n    }\n}\n",
  "sourcePath": "/Users/kloy/Development/Code/ava_labs_assignment/contracts/Swap.sol",
  "compiler": {
    "name": "solc",
    "version": "0.8.7+commit.e28d00a7.Emscripten.clang"
  },
  "schemaVersion": "3.4.2",
  "updatedAt": "2021-08-28T08:06:02.675Z",
  "devdoc": {
    "kind": "dev",
    "methods": {},
    "version": 1
  },
  "userdoc": {
    "kind": "user",
    "methods": {},
    "version": 1
  }
}