{
  "contractName": "Token",
  "abi": [
    {
      "inputs": [
        {
          "internalType": "string",
          "name": "name_",
          "type": "string"
        },
        {
          "internalType": "string",
          "name": "symbol_",
          "type": "string"
        },
        {
          "internalType": "uint256",
          "name": "decimals_",
          "type": "uint256"
        },
        {
          "internalType": "uint256",
          "name": "totalSupply_",
          "type": "uint256"
        }
      ],
      "stateMutability": "payable",
      "type": "constructor"
    },
    {
      "anonymous": false,
      "inputs": [
        {
          "indexed": true,
          "internalType": "address",
          "name": "previousAdmin",
          "type": "address"
        },
        {
          "indexed": true,
          "internalType": "address",
          "name": "newAdmin",
          "type": "address"
        }
      ],
      "name": "AdminChanged",
      "type": "event"
    },
    {
      "anonymous": false,
      "inputs": [
        {
          "indexed": true,
          "internalType": "address",
          "name": "owner",
          "type": "address"
        },
        {
          "indexed": true,
          "internalType": "address",
          "name": "spender",
          "type": "address"
        },
        {
          "indexed": false,
          "internalType": "uint256",
          "name": "value",
          "type": "uint256"
        }
      ],
      "name": "Approval",
      "type": "event"
    },
    {
      "anonymous": false,
      "inputs": [
        {
          "indexed": true,
          "internalType": "address",
          "name": "sender",
          "type": "address"
        },
        {
          "indexed": false,
          "internalType": "uint256",
          "name": "value",
          "type": "uint256"
        }
      ],
      "name": "Fallback",
      "type": "event"
    },
    {
      "anonymous": false,
      "inputs": [
        {
          "indexed": true,
          "internalType": "address",
          "name": "from",
          "type": "address"
        },
        {
          "indexed": true,
          "internalType": "address",
          "name": "to",
          "type": "address"
        },
        {
          "indexed": false,
          "internalType": "uint256",
          "name": "value",
          "type": "uint256"
        }
      ],
      "name": "Transfer",
      "type": "event"
    },
    {
      "inputs": [
        {
          "internalType": "address",
          "name": "",
          "type": "address"
        },
        {
          "internalType": "address",
          "name": "",
          "type": "address"
        }
      ],
      "name": "_allowances",
      "outputs": [
        {
          "internalType": "uint256",
          "name": "",
          "type": "uint256"
        }
      ],
      "stateMutability": "view",
      "type": "function"
    },
    {
      "inputs": [
        {
          "internalType": "address",
          "name": "",
          "type": "address"
        }
      ],
      "name": "_balances",
      "outputs": [
        {
          "internalType": "uint256",
          "name": "",
          "type": "uint256"
        }
      ],
      "stateMutability": "view",
      "type": "function"
    },
    {
      "inputs": [],
      "name": "_name",
      "outputs": [
        {
          "internalType": "string",
          "name": "",
          "type": "string"
        }
      ],
      "stateMutability": "view",
      "type": "function"
    },
    {
      "inputs": [],
      "name": "_symbol",
      "outputs": [
        {
          "internalType": "string",
          "name": "",
          "type": "string"
        }
      ],
      "stateMutability": "view",
      "type": "function"
    },
    {
      "inputs": [],
      "name": "_tokenDecimals",
      "outputs": [
        {
          "internalType": "uint256",
          "name": "",
          "type": "uint256"
        }
      ],
      "stateMutability": "view",
      "type": "function"
    },
    {
      "inputs": [],
      "name": "getAdmin",
      "outputs": [
        {
          "internalType": "address",
          "name": "",
          "type": "address"
        }
      ],
      "stateMutability": "view",
      "type": "function"
    },
    {
      "inputs": [],
      "name": "totalMinted",
      "outputs": [
        {
          "internalType": "uint256",
          "name": "",
          "type": "uint256"
        }
      ],
      "stateMutability": "view",
      "type": "function"
    },
    {
      "inputs": [],
      "name": "totalSupply",
      "outputs": [
        {
          "internalType": "uint256",
          "name": "",
          "type": "uint256"
        }
      ],
      "stateMutability": "view",
      "type": "function"
    },
    {
      "stateMutability": "payable",
      "type": "receive"
    },
    {
      "inputs": [
        {
          "internalType": "address",
          "name": "sender",
          "type": "address"
        },
        {
          "internalType": "address",
          "name": "recipient",
          "type": "address"
        },
        {
          "internalType": "uint256",
          "name": "amount",
          "type": "uint256"
        }
      ],
      "name": "transferFrom",
      "outputs": [
        {
          "internalType": "bool",
          "name": "",
          "type": "bool"
        }
      ],
      "stateMutability": "nonpayable",
      "type": "function"
    },
    {
      "inputs": [
        {
          "internalType": "address",
          "name": "account",
          "type": "address"
        },
        {
          "internalType": "uint256",
          "name": "amount",
          "type": "uint256"
        }
      ],
      "name": "mint",
      "outputs": [],
      "stateMutability": "nonpayable",
      "type": "function"
    },
    {
      "inputs": [
        {
          "internalType": "address",
          "name": "spender",
          "type": "address"
        },
        {
          "internalType": "uint256",
          "name": "amount",
          "type": "uint256"
        }
      ],
      "name": "approve",
      "outputs": [
        {
          "internalType": "bool",
          "name": "",
          "type": "bool"
        }
      ],
      "stateMutability": "nonpayable",
      "type": "function"
    },
    {
      "inputs": [
        {
          "internalType": "address",
          "name": "owner",
          "type": "address"
        },
        {
          "internalType": "address",
          "name": "spender",
          "type": "address"
        },
        {
          "internalType": "uint256",
          "name": "amount",
          "type": "uint256"
        }
      ],
      "name": "approveFrom",
      "outputs": [
        {
          "internalType": "bool",
          "name": "",
          "type": "bool"
        }
      ],
      "stateMutability": "nonpayable",
      "type": "function"
    },
    {
      "inputs": [
        {
          "internalType": "address",
          "name": "recipient",
          "type": "address"
        },
        {
          "internalType": "uint256",
          "name": "amount",
          "type": "uint256"
        }
      ],
      "name": "transfer",
      "outputs": [
        {
          "internalType": "bool",
          "name": "",
          "type": "bool"
        }
      ],
      "stateMutability": "nonpayable",
      "type": "function"
    },
    {
      "inputs": [],
      "name": "getTotalMinted",
      "outputs": [
        {
          "internalType": "uint256",
          "name": "",
          "type": "uint256"
        }
      ],
      "stateMutability": "view",
      "type": "function"
    },
    {
      "inputs": [
        {
          "internalType": "address",
          "name": "account",
          "type": "address"
        }
      ],
      "name": "balanceOf",
      "outputs": [
        {
          "internalType": "uint256",
          "name": "",
          "type": "uint256"
        }
      ],
      "stateMutability": "view",
      "type": "function"
    },
    {
      "inputs": [
        {
          "internalType": "address",
          "name": "owner",
          "type": "address"
        },
        {
          "internalType": "address",
          "name": "spender",
          "type": "address"
        }
      ],
      "name": "allowance",
      "outputs": [
        {
          "internalType": "uint256",
          "name": "",
          "type": "uint256"
        }
      ],
      "stateMutability": "view",
      "type": "function"
    }
  ],
  "bytecode": "0x608060405260405162002dd238038062002dd2833981810160405281019062000029919062000780565b60003390506200003f81620000bf60201b60201c565b50600033905084600290805190602001906200005d9291906200063b565b508360039080519060200190620000769291906200063b565b50826004819055506200008f81620000bf60201b60201c565b620000a082620001a360201b60201c565b620000b430600554620002d960201b60201c565b505050505062000dc1565b60008060009054906101000a900473ffffffffffffffffffffffffffffffffffffffff169050816000806101000a81548173ffffffffffffffffffffffffffffffffffffffff021916908373ffffffffffffffffffffffffffffffffffffffff16021790555060008054906101000a900473ffffffffffffffffffffffffffffffffffffffff1673ffffffffffffffffffffffffffffffffffffffff168173ffffffffffffffffffffffffffffffffffffffff167f7e644d79422f17c01e4894b5f4f588d331ebfa28653d42ae832dc59e38c9798f60405160405180910390a35050565b620001b36200061260201b60201c565b73ffffffffffffffffffffffffffffffffffffffff163373ffffffffffffffffffffffffffffffffffffffff1614806200021857503073ffffffffffffffffffffffffffffffffffffffff163373ffffffffffffffffffffffffffffffffffffffff16145b6200025a576040517f08c379a000000000000000000000000000000000000000000000000000000000815260040162000251906200094d565b60405180910390fd5b33600073ffffffffffffffffffffffffffffffffffffffff168173ffffffffffffffffffffffffffffffffffffffff161415620002ce576040517f08c379a0000000000000000000000000000000000000000000000000000000008152600401620002c5906200092b565b60405180910390fd5b816005819055505050565b620002e96200061260201b60201c565b73ffffffffffffffffffffffffffffffffffffffff163373ffffffffffffffffffffffffffffffffffffffff1614806200034e57503073ffffffffffffffffffffffffffffffffffffffff163373ffffffffffffffffffffffffffffffffffffffff16145b62000390576040517f08c379a000000000000000000000000000000000000000000000000000000000815260040162000387906200094d565b60405180910390fd5b81600073ffffffffffffffffffffffffffffffffffffffff168173ffffffffffffffffffffffffffffffffffffffff16141562000404576040517f08c379a0000000000000000000000000000000000000000000000000000000008152600401620003fb906200092b565b60405180910390fd5b8160008114156200044c576040517f08c379a00000000000000000000000000000000000000000000000000000000081526004016200044390620009d5565b60405180910390fd5b6000811162000492576040517f08c379a00000000000000000000000000000000000000000000000000000000081526004016200048990620009b3565b60405180910390fd5b600554811115620004da576040517f08c379a0000000000000000000000000000000000000000000000000000000008152600401620004d1906200096f565b60405180910390fd5b60055481600654620004ed919062000a84565b111562000531576040517f08c379a0000000000000000000000000000000000000000000000000000000008152600401620005289062000991565b60405180910390fd5b82600760008673ffffffffffffffffffffffffffffffffffffffff1673ffffffffffffffffffffffffffffffffffffffff168152602001908152602001600020600082825462000582919062000a84565b9250508190555082600660008282546200059d919062000a84565b925050819055508373ffffffffffffffffffffffffffffffffffffffff16600073ffffffffffffffffffffffffffffffffffffffff167fddf252ad1be2c89b69c2b068fc378daa952ba7f163c4a11628f55a4df523b3ef85604051620006049190620009f7565b60405180910390a350505050565b60008060009054906101000a900473ffffffffffffffffffffffffffffffffffffffff16905090565b828054620006499062000b21565b90600052602060002090601f0160209004810192826200066d5760008555620006b9565b82601f106200068857805160ff1916838001178555620006b9565b82800160010185558215620006b9579182015b82811115620006b85782518255916020019190600101906200069b565b5b509050620006c89190620006cc565b5090565b5b80821115620006e7576000816000905550600101620006cd565b5090565b600062000702620006fc8462000a3d565b62000a14565b90508281526020810184848401111562000721576200072062000c1f565b5b6200072e84828562000aeb565b509392505050565b600082601f8301126200074e576200074d62000c1a565b5b815162000760848260208601620006eb565b91505092915050565b6000815190506200077a8162000da7565b92915050565b600080600080608085870312156200079d576200079c62000c29565b5b600085015167ffffffffffffffff811115620007be57620007bd62000c24565b5b620007cc8782880162000736565b945050602085015167ffffffffffffffff811115620007f057620007ef62000c24565b5b620007fe8782880162000736565b9350506040620008118782880162000769565b9250506060620008248782880162000769565b91505092959194509250565b60006200083f60258362000a73565b91506200084c8262000c3f565b604082019050919050565b60006200086660168362000a73565b9150620008738262000c8e565b602082019050919050565b60006200088d601f8362000a73565b91506200089a8262000cb7565b602082019050919050565b6000620008b460498362000a73565b9150620008c18262000ce0565b606082019050919050565b6000620008db601a8362000a73565b9150620008e88262000d55565b602082019050919050565b60006200090260158362000a73565b91506200090f8262000d7e565b602082019050919050565b620009258162000ae1565b82525050565b60006020820190508181036000830152620009468162000830565b9050919050565b60006020820190508181036000830152620009688162000857565b9050919050565b600060208201905081810360008301526200098a816200087e565b9050919050565b60006020820190508181036000830152620009ac81620008a5565b9050919050565b60006020820190508181036000830152620009ce81620008cc565b9050919050565b60006020820190508181036000830152620009f081620008f3565b9050919050565b600060208201905062000a0e60008301846200091a565b92915050565b600062000a2062000a33565b905062000a2e828262000b57565b919050565b6000604051905090565b600067ffffffffffffffff82111562000a5b5762000a5a62000beb565b5b62000a668262000c2e565b9050602081019050919050565b600082825260208201905092915050565b600062000a918262000ae1565b915062000a9e8362000ae1565b9250827fffffffffffffffffffffffffffffffffffffffffffffffffffffffffffffffff0382111562000ad65762000ad562000b8d565b5b828201905092915050565b6000819050919050565b60005b8381101562000b0b57808201518184015260208101905062000aee565b8381111562000b1b576000848401525b50505050565b6000600282049050600182168062000b3a57607f821691505b6020821081141562000b515762000b5062000bbc565b5b50919050565b62000b628262000c2e565b810181811067ffffffffffffffff8211171562000b845762000b8362000beb565b5b80604052505050565b7f4e487b7100000000000000000000000000000000000000000000000000000000600052601160045260246000fd5b7f4e487b7100000000000000000000000000000000000000000000000000000000600052602260045260246000fd5b7f4e487b7100000000000000000000000000000000000000000000000000000000600052604160045260246000fd5b600080fd5b600080fd5b600080fd5b600080fd5b6000601f19601f8301169050919050565b7f43616e6e6f74207472616e73616374207769746820746865207a65726f20616460008201527f6472657373000000000000000000000000000000000000000000000000000000602082015250565b7f4d75737420626520636f6e74726163742061646d696e00000000000000000000600082015250565b7f4d757374206265206c657373207468616e20746f74616c20737570706c792e00600082015250565b7f5468697320776f756c642063617573652074686520746f74616c206d696e746560008201527f6420636f696e7320746f206265206d6f7265207468616e2074686520746f746160208201527f6c20737570706c792e0000000000000000000000000000000000000000000000604082015250565b7f4d757374206265206120706f736974697665206e756d6265722e000000000000600082015250565b7f4e756d6265722063616e6e6f74206265207a65726f0000000000000000000000600082015250565b62000db28162000ae1565b811462000dbe57600080fd5b50565b6120018062000dd16000396000f3fe6080604052600436106100f75760003560e01c80636e9960c31161008a578063a9059cbb11610059578063a9059cbb146103bf578063b09f1266146103fc578063d28d885214610427578063dd62ed3e146104525761014c565b80636e9960c3146102ef5780636ebcf6071461031a57806370a0823114610357578063a2309ff8146103945761014c565b806323b872dd116100c657806323b872dd1461022157806330ca13871461025e57806340c10f191461028957806352ec8529146102b25761014c565b8063024c2ddd14610151578063095ea7b31461018e5780630ca1c5c9146101cb57806318160ddd146101f65761014c565b3661014c573373ffffffffffffffffffffffffffffffffffffffff167ffbf15a1bae5e021d024841007b692b167afd2a281a4ff0b44f47387eb388205c3460405161014291906119b2565b60405180910390a2005b600080fd5b34801561015d57600080fd5b5061017860048036038101906101739190611434565b61048f565b60405161018591906119b2565b60405180910390f35b34801561019a57600080fd5b506101b560048036038101906101b091906114c7565b6104b4565b6040516101c29190611795565b60405180910390f35b3480156101d757600080fd5b506101e061068c565b6040516101ed91906119b2565b60405180910390f35b34801561020257600080fd5b5061020b610696565b60405161021891906119b2565b60405180910390f35b34801561022d57600080fd5b5061024860048036038101906102439190611474565b61069c565b6040516102559190611795565b60405180910390f35b34801561026a57600080fd5b50610273610889565b60405161028091906119b2565b60405180910390f35b34801561029557600080fd5b506102b060048036038101906102ab91906114c7565b61088f565b005b3480156102be57600080fd5b506102d960048036038101906102d49190611474565b610ba5565b6040516102e69190611795565b60405180910390f35b3480156102fb57600080fd5b50610304610cd7565b604051610311919061177a565b60405180910390f35b34801561032657600080fd5b50610341600480360381019061033c9190611407565b610d00565b60405161034e91906119b2565b60405180910390f35b34801561036357600080fd5b5061037e60048036038101906103799190611407565b610d18565b60405161038b91906119b2565b60405180910390f35b3480156103a057600080fd5b506103a9610d61565b6040516103b691906119b2565b60405180910390f35b3480156103cb57600080fd5b506103e660048036038101906103e191906114c7565b610d67565b6040516103f39190611795565b60405180910390f35b34801561040857600080fd5b50610411610df0565b60405161041e91906117b0565b60405180910390f35b34801561043357600080fd5b5061043c610e7e565b60405161044991906117b0565b60405180910390f35b34801561045e57600080fd5b5061047960048036038101906104749190611434565b610f0c565b60405161048691906119b2565b60405180910390f35b6008602052816000526040600020602052806000526040600020600091509150505481565b600033600073ffffffffffffffffffffffffffffffffffffffff168173ffffffffffffffffffffffffffffffffffffffff161415610527576040517f08c379a000000000000000000000000000000000000000000000000000000000815260040161051e90611872565b60405180910390fd5b6000339050600073ffffffffffffffffffffffffffffffffffffffff168173ffffffffffffffffffffffffffffffffffffffff161415806105955750600073ffffffffffffffffffffffffffffffffffffffff168573ffffffffffffffffffffffffffffffffffffffff1614155b6105d4576040517f08c379a00000000000000000000000000000000000000000000000000000000081526004016105cb90611932565b60405180910390fd5b600554846105e29190611a3f565b841015610624576040517f08c379a000000000000000000000000000000000000000000000000000000000815260040161061b906117f2565b60405180910390fd5b600061062f86610d18565b905080851015610674576040517f08c379a000000000000000000000000000000000000000000000000000000000815260040161066b906118f2565b60405180910390fd5b61067f82878761103a565b6001935050505092915050565b6000600654905090565b60055481565b600033600073ffffffffffffffffffffffffffffffffffffffff168173ffffffffffffffffffffffffffffffffffffffff16141561070f576040517f08c379a000000000000000000000000000000000000000000000000000000000815260040161070690611872565b60405180910390fd5b600260ff16600060149054906101000a900460ff1660ff161415610768576040517f08c379a000000000000000000000000000000000000000000000000000000000815260040161075f906118b2565b60405180910390fd5b6002600060146101000a81548160ff021916908360ff16021790555061078f858585611125565b6000600860008773ffffffffffffffffffffffffffffffffffffffff1673ffffffffffffffffffffffffffffffffffffffff16815260200190815260200160002060003373ffffffffffffffffffffffffffffffffffffffff1673ffffffffffffffffffffffffffffffffffffffff16815260200190815260200160002054905083811015610853576040517f08c379a000000000000000000000000000000000000000000000000000000000815260040161084a90611852565b60405180910390fd5b610860863386840361103a565b60019250506001600060146101000a81548160ff021916908360ff160217905550509392505050565b60045481565b610897610cd7565b73ffffffffffffffffffffffffffffffffffffffff163373ffffffffffffffffffffffffffffffffffffffff1614806108fb57503073ffffffffffffffffffffffffffffffffffffffff163373ffffffffffffffffffffffffffffffffffffffff16145b61093a576040517f08c379a000000000000000000000000000000000000000000000000000000000815260040161093190611892565b60405180910390fd5b81600073ffffffffffffffffffffffffffffffffffffffff168173ffffffffffffffffffffffffffffffffffffffff1614156109ab576040517f08c379a00000000000000000000000000000000000000000000000000000000081526004016109a290611872565b60405180910390fd5b8160008114156109f0576040517f08c379a00000000000000000000000000000000000000000000000000000000081526004016109e790611992565b60405180910390fd5b60008111610a33576040517f08c379a0000000000000000000000000000000000000000000000000000000008152600401610a2a90611972565b60405180910390fd5b600554811115610a78576040517f08c379a0000000000000000000000000000000000000000000000000000000008152600401610a6f90611912565b60405180910390fd5b60055481600654610a8991906119e9565b1115610aca576040517f08c379a0000000000000000000000000000000000000000000000000000000008152600401610ac190611952565b60405180910390fd5b82600760008673ffffffffffffffffffffffffffffffffffffffff1673ffffffffffffffffffffffffffffffffffffffff1681526020019081526020016000206000828254610b1991906119e9565b925050819055508260066000828254610b3291906119e9565b925050819055508373ffffffffffffffffffffffffffffffffffffffff16600073ffffffffffffffffffffffffffffffffffffffff167fddf252ad1be2c89b69c2b068fc378daa952ba7f163c4a11628f55a4df523b3ef85604051610b9791906119b2565b60405180910390a350505050565b600033600073ffffffffffffffffffffffffffffffffffffffff168173ffffffffffffffffffffffffffffffffffffffff161415610c18576040517f08c379a0000000000000000000000000000000000000000000000000000000008152600401610c0f90611872565b60405180910390fd5b600073ffffffffffffffffffffffffffffffffffffffff168573ffffffffffffffffffffffffffffffffffffffff16141580610c815750600073ffffffffffffffffffffffffffffffffffffffff168473ffffffffffffffffffffffffffffffffffffffff1614155b610cc0576040517f08c379a0000000000000000000000000000000000000000000000000000000008152600401610cb790611932565b60405180910390fd5b610ccb85858561103a565b60019150509392505050565b60008060009054906101000a900473ffffffffffffffffffffffffffffffffffffffff16905090565b60076020528060005260406000206000915090505481565b6000600760008373ffffffffffffffffffffffffffffffffffffffff1673ffffffffffffffffffffffffffffffffffffffff168152602001908152602001600020549050919050565b60065481565b600033600073ffffffffffffffffffffffffffffffffffffffff168173ffffffffffffffffffffffffffffffffffffffff161415610dda576040517f08c379a0000000000000000000000000000000000000000000000000000000008152600401610dd190611872565b60405180910390fd5b610de5338585611125565b600191505092915050565b60038054610dfd90611aee565b80601f0160208091040260200160405190810160405280929190818152602001828054610e2990611aee565b8015610e765780601f10610e4b57610100808354040283529160200191610e76565b820191906000526020600020905b815481529060010190602001808311610e5957829003601f168201915b505050505081565b60028054610e8b90611aee565b80601f0160208091040260200160405190810160405280929190818152602001828054610eb790611aee565b8015610f045780601f10610ed957610100808354040283529160200191610f04565b820191906000526020600020905b815481529060010190602001808311610ee757829003601f168201915b505050505081565b60008073ffffffffffffffffffffffffffffffffffffffff168373ffffffffffffffffffffffffffffffffffffffff16141580610f765750600073ffffffffffffffffffffffffffffffffffffffff168273ffffffffffffffffffffffffffffffffffffffff1614155b610fb5576040517f08c379a0000000000000000000000000000000000000000000000000000000008152600401610fac90611832565b60405180910390fd5b600860008473ffffffffffffffffffffffffffffffffffffffff1673ffffffffffffffffffffffffffffffffffffffff16815260200190815260200160002060008373ffffffffffffffffffffffffffffffffffffffff1673ffffffffffffffffffffffffffffffffffffffff16815260200190815260200160002054905092915050565b80600860008573ffffffffffffffffffffffffffffffffffffffff1673ffffffffffffffffffffffffffffffffffffffff16815260200190815260200160002060008473ffffffffffffffffffffffffffffffffffffffff1673ffffffffffffffffffffffffffffffffffffffff168152602001908152602001600020819055508173ffffffffffffffffffffffffffffffffffffffff168373ffffffffffffffffffffffffffffffffffffffff167f8c5be1e5ebec7d5bd14f71427d1e84f3dd0314c0f7b2291e5b200ac8c7c3b9258360405161111891906119b2565b60405180910390a3505050565b600073ffffffffffffffffffffffffffffffffffffffff168373ffffffffffffffffffffffffffffffffffffffff161415611195576040517f08c379a000000000000000000000000000000000000000000000000000000000815260040161118c906118d2565b60405180910390fd5b600073ffffffffffffffffffffffffffffffffffffffff168273ffffffffffffffffffffffffffffffffffffffff161415611205576040517f08c379a00000000000000000000000000000000000000000000000000000000081526004016111fc906117d2565b60405180910390fd5b6000600760008573ffffffffffffffffffffffffffffffffffffffff1673ffffffffffffffffffffffffffffffffffffffff1681526020019081526020016000205490506000600760008573ffffffffffffffffffffffffffffffffffffffff1673ffffffffffffffffffffffffffffffffffffffff1681526020019081526020016000205490506000838261129b91906119e9565b9050838310156112e0576040517f08c379a00000000000000000000000000000000000000000000000000000000081526004016112d790611812565b60405180910390fd5b6000848403905080600760008973ffffffffffffffffffffffffffffffffffffffff1673ffffffffffffffffffffffffffffffffffffffff168152602001908152602001600020819055505080600760008773ffffffffffffffffffffffffffffffffffffffff1673ffffffffffffffffffffffffffffffffffffffff168152602001908152602001600020819055508473ffffffffffffffffffffffffffffffffffffffff168673ffffffffffffffffffffffffffffffffffffffff167fddf252ad1be2c89b69c2b068fc378daa952ba7f163c4a11628f55a4df523b3ef866040516113cd91906119b2565b60405180910390a3505050505050565b6000813590506113ec81611f9d565b92915050565b60008135905061140181611fb4565b92915050565b60006020828403121561141d5761141c611b7e565b5b600061142b848285016113dd565b91505092915050565b6000806040838503121561144b5761144a611b7e565b5b6000611459858286016113dd565b925050602061146a858286016113dd565b9150509250929050565b60008060006060848603121561148d5761148c611b7e565b5b600061149b868287016113dd565b93505060206114ac868287016113dd565b92505060406114bd868287016113f2565b9150509250925092565b600080604083850312156114de576114dd611b7e565b5b60006114ec858286016113dd565b92505060206114fd858286016113f2565b9150509250929050565b61151081611a73565b82525050565b61151f81611a85565b82525050565b6000611530826119cd565b61153a81856119d8565b935061154a818560208601611abb565b61155381611b83565b840191505092915050565b600061156b6023836119d8565b915061157682611b94565b604082019050919050565b600061158e6026836119d8565b915061159982611be3565b604082019050919050565b60006115b16026836119d8565b91506115bc82611c32565b604082019050919050565b60006115d46021836119d8565b91506115df82611c81565b604082019050919050565b60006115f76028836119d8565b915061160282611cd0565b604082019050919050565b600061161a6025836119d8565b915061162582611d1f565b604082019050919050565b600061163d6016836119d8565b915061164882611d6e565b602082019050919050565b6000611660600e836119d8565b915061166b82611d97565b602082019050919050565b60006116836025836119d8565b915061168e82611dc0565b604082019050919050565b60006116a66027836119d8565b91506116b182611e0f565b604082019050919050565b60006116c9601f836119d8565b91506116d482611e5e565b602082019050919050565b60006116ec6024836119d8565b91506116f782611e87565b604082019050919050565b600061170f6049836119d8565b915061171a82611ed6565b606082019050919050565b6000611732601a836119d8565b915061173d82611f4b565b602082019050919050565b60006117556015836119d8565b915061176082611f74565b602082019050919050565b61177481611ab1565b82525050565b600060208201905061178f6000830184611507565b92915050565b60006020820190506117aa6000830184611516565b92915050565b600060208201905081810360008301526117ca8184611525565b905092915050565b600060208201905081810360008301526117eb8161155e565b9050919050565b6000602082019050818103600083015261180b81611581565b9050919050565b6000602082019050818103600083015261182b816115a4565b9050919050565b6000602082019050818103600083015261184b816115c7565b9050919050565b6000602082019050818103600083015261186b816115ea565b9050919050565b6000602082019050818103600083015261188b8161160d565b9050919050565b600060208201905081810360008301526118ab81611630565b9050919050565b600060208201905081810360008301526118cb81611653565b9050919050565b600060208201905081810360008301526118eb81611676565b9050919050565b6000602082019050818103600083015261190b81611699565b9050919050565b6000602082019050818103600083015261192b816116bc565b9050919050565b6000602082019050818103600083015261194b816116df565b9050919050565b6000602082019050818103600083015261196b81611702565b9050919050565b6000602082019050818103600083015261198b81611725565b9050919050565b600060208201905081810360008301526119ab81611748565b9050919050565b60006020820190506119c7600083018461176b565b92915050565b600081519050919050565b600082825260208201905092915050565b60006119f482611ab1565b91506119ff83611ab1565b9250827fffffffffffffffffffffffffffffffffffffffffffffffffffffffffffffffff03821115611a3457611a33611b20565b5b828201905092915050565b6000611a4a82611ab1565b9150611a5583611ab1565b925082821015611a6857611a67611b20565b5b828203905092915050565b6000611a7e82611a91565b9050919050565b60008115159050919050565b600073ffffffffffffffffffffffffffffffffffffffff82169050919050565b6000819050919050565b60005b83811015611ad9578082015181840152602081019050611abe565b83811115611ae8576000848401525b50505050565b60006002820490506001821680611b0657607f821691505b60208210811415611b1a57611b19611b4f565b5b50919050565b7f4e487b7100000000000000000000000000000000000000000000000000000000600052601160045260246000fd5b7f4e487b7100000000000000000000000000000000000000000000000000000000600052602260045260246000fd5b600080fd5b6000601f19601f8301169050919050565b7f45524332303a207472616e7366657220746f20746865207a65726f206164647260008201527f6573730000000000000000000000000000000000000000000000000000000000602082015250565b7f417070726f76616c20776f756c64206578636565642074686520746f74616c2060008201527f737570706c790000000000000000000000000000000000000000000000000000602082015250565b7f45524332303a207472616e7366657220616d6f756e742065786365656473206260008201527f616c616e63650000000000000000000000000000000000000000000000000000602082015250565b7f45524332303a206d696e742066726f6d20746865207a65726f2061646472657360008201527f7300000000000000000000000000000000000000000000000000000000000000602082015250565b7f45524332303a207472616e7366657220616d6f756e742065786365656473206160008201527f6c6c6f77616e6365000000000000000000000000000000000000000000000000602082015250565b7f43616e6e6f74207472616e73616374207769746820746865207a65726f20616460008201527f6472657373000000000000000000000000000000000000000000000000000000602082015250565b7f4d75737420626520636f6e74726163742061646d696e00000000000000000000600082015250565b7f5265656e7472616e742063616c6c000000000000000000000000000000000000600082015250565b7f45524332303a207472616e736665722066726f6d20746865207a65726f20616460008201527f6472657373000000000000000000000000000000000000000000000000000000602082015250565b7f417070726f76616c20776f756c6420657863656564207370656e64657227732060008201527f62616c616e636500000000000000000000000000000000000000000000000000602082015250565b7f4d757374206265206c657373207468616e20746f74616c20737570706c792e00600082015250565b7f45524332303a20617070726f76652066726f6d20746865207a65726f2061646460008201527f7265737300000000000000000000000000000000000000000000000000000000602082015250565b7f5468697320776f756c642063617573652074686520746f74616c206d696e746560008201527f6420636f696e7320746f206265206d6f7265207468616e2074686520746f746160208201527f6c20737570706c792e0000000000000000000000000000000000000000000000604082015250565b7f4d757374206265206120706f736974697665206e756d6265722e000000000000600082015250565b7f4e756d6265722063616e6e6f74206265207a65726f0000000000000000000000600082015250565b611fa681611a73565b8114611fb157600080fd5b50565b611fbd81611ab1565b8114611fc857600080fd5b5056fea26469706673582212200aa528956efd25c137249755d8264ab861cdc7442a3ad0e972151a07d2f88c6664736f6c63430008070033",
  "immutableReferences": {},
  "source": "//SPDX-License-Identifier: UNLICENSED\npragma solidity ^0.8.0;\n\nimport './Template.sol';\n\ncontract Token is Template {\n    using Address for address;\n    using Arrays for uint256[];\n    using SafeMath for uint256;\n    using Strings for string;\n\n    uint8 private constant _NOT_ENTERED = 1;\n    uint8 private constant _ENTERED = 2;\n    uint8 private _status;\n\n    address private _admin;\n\n    string public _name;\n    string public _symbol;\n    uint256 public _tokenDecimals;\n    uint256 public override totalSupply;\n    uint256 public totalMinted;\n\n    mapping(address => uint256) public _balances;\n    mapping(address => mapping(address => uint256)) public _allowances;\n\n    modifier safe(address account) {\n        require(account != address(0), 'Cannot transact with the zero address');\n        _;\n    }\n\n    modifier security {\n        require((msg.sender == getAdmin()) || (msg.sender == address(this)), 'Must be contract admin');\n        _;\n    }\n\n    modifier restricted(uint256 number) {\n        require(number != 0, 'Number cannot be zero');\n        require(number > 0, 'Must be a positive number.');\n        require(number <= totalSupply, 'Must be less than total supply.');\n        require(\n            (totalMinted + number) <= totalSupply,\n            'This would cause the total minted coins to be more than the total supply.'\n        );\n        _;\n    }\n\n    modifier reentrancyProtection() {\n        require(_status != _ENTERED, 'Reentrant call');\n        _status = _ENTERED;\n        _;\n        _status = _NOT_ENTERED;\n    }\n\n    constructor(string memory name_, string memory symbol_, uint256 decimals_, uint256 totalSupply_) payable Template() {\n        address admin = msg.sender;\n        _name = name_;\n        _symbol = symbol_;\n        _tokenDecimals = decimals_;\n        setAdmin(admin);\n        setTotalSupply(totalSupply_);\n        mint(address(this), totalSupply);\n    }\n\n    function transferFrom(\n    address sender,\n    address recipient,\n    uint256 amount\n    ) external override safe(msg.sender) reentrancyProtection returns (bool) {\n        _transfer(sender, recipient, amount);\n        uint256 currentAllowance = _allowances[sender][msg.sender];\n        require(currentAllowance >= amount, \"ERC20: transfer amount exceeds allowance\");\n        unchecked {\n            _approve(sender, msg.sender, currentAllowance - amount);\n        }\n        return true;\n    }\n\n    function mint(address account, uint256 amount)\n    public\n    override\n    security\n    safe(account)\n    restricted(amount)\n    {\n        _balances[account] += amount;\n        totalMinted += amount;\n        emit Transfer(address(0), account, amount);\n    }\n\n    function approve(address spender, uint256 amount) public override safe(msg.sender) returns (bool){\n        address owner = msg.sender;\n        require((owner != address(0) || (spender != address(0))), \"ERC20: approve from the zero address\");\n        require(amount >= (amount - totalSupply), \"Approval would exceed the total supply\");\n        uint256 spenderBalance = balanceOf(spender);\n        require(amount >= spenderBalance, \"Approval would exceed spender's balance\");\n        _approve(owner, spender, amount);\n        return true;\n    }\n\n    function approveFrom(\n    address owner,\n    address spender,\n    uint256 amount) public safe(msg.sender)  returns (bool) {\n        require((owner != address(0) || (spender != address(0))), \"ERC20: approve from the zero address\");\n        _approve(owner, spender, amount);\n        return true;\n    }\n\n    function transfer(address recipient, uint256 amount) public override safe(msg.sender) returns (bool){\n        _transfer(msg.sender, recipient, amount);\n        return true;\n    }\n\n    function getTotalMinted() public view override returns (uint256) {\n        return totalMinted;\n    }\n\n    function balanceOf(address account)\n    public\n    view\n    override\n    returns (uint256)\n    {\n        return _balances[account];\n    }\n\n    function allowance(address owner, address spender)\n        public\n        view\n        override\n        returns (uint256)\n    {\n        require((owner != address(0) || (spender != address(0))), \"ERC20: mint from the zero address\");\n        return _allowances[owner][spender];\n    }\n\n    function setTotalSupply(uint256 totalSupply_) internal override security safe(msg.sender) {\n        totalSupply = totalSupply_;\n    }\n\n    function _approve(address owner, address spender, uint256 amount) internal {\n        _allowances[owner][spender] = amount;\n        emit Approval(owner, spender, amount);\n    }\n\n    function _transfer(address sender, address recipient, uint256 amount) internal {\n        require(sender != address(0), \"ERC20: transfer from the zero address\");\n        require(recipient != address(0), \"ERC20: transfer to the zero address\");\n        uint256 senderBalance = _balances[sender];\n        uint256 recipientBalance = _balances[recipient];\n        uint256 newRecipientBalance = recipientBalance + amount;\n        require(senderBalance >= amount, \"ERC20: transfer amount exceeds balance\");\n        unchecked {\n        uint256 newSenderBalance = senderBalance - amount;\n            _balances[sender] = newSenderBalance;\n        }\n        _balances[recipient] = newRecipientBalance;\n        emit Transfer(sender, recipient, amount);\n    }\n}\n",
  "sourcePath": "/Users/kloy/Development/Code/ava_labs_assignment/contracts/Token.sol",
  "compiler": {
    "name": "solc",
    "version": "0.8.7+commit.e28d00a7.Emscripten.clang"
  },
  "schemaVersion": "3.4.2",
  "updatedAt": "2021-08-28T08:06:02.685Z",
  "devdoc": {
    "kind": "dev",
    "methods": {
      "allowance(address,address)": {
        "details": "Returns the remaining number of tokens that `spender` will be allowed to spend on behalf of `owner` through {transferFrom}. This is zero by default. This value changes when {approve} or {transferFrom} are called."
      },
      "approve(address,uint256)": {
        "details": "Sets `amount` as the allowance of `spender` over the caller's tokens. Returns a boolean value indicating whether the operation succeeded. IMPORTANT: Beware that changing an allowance with this method brings the risk that someone may use both the old and the new allowance by unfortunate transaction ordering. One possible solution to mitigate this race condition is to first reduce the spender's allowance to 0 and set the desired value afterwards: https://github.com/ethereum/EIPs/issues/20#issuecomment-263524729 Emits an {Approval} event."
      },
      "balanceOf(address)": {
        "details": "Returns the amount of tokens owned by `account`."
      },
      "transfer(address,uint256)": {
        "details": "Moves `amount` tokens from the caller's account to `recipient`. Returns a boolean value indicating whether the operation succeeded. Emits a {Transfer} event."
      }
    },
    "stateVariables": {
      "totalSupply": {
        "details": "Returns the amount of tokens in existence."
      }
    },
    "version": 1
  },
  "userdoc": {
    "kind": "user",
    "methods": {},
    "version": 1
  }
}