{
  "contractName": "Wrapper",
  "abi": [
    {
      "inputs": [
        {
          "internalType": "address",
          "name": "owner_",
          "type": "address"
        }
      ],
      "stateMutability": "nonpayable",
      "type": "constructor"
    },
    {
      "anonymous": false,
      "inputs": [
        {
          "indexed": true,
          "internalType": "address",
          "name": "previousAdmin",
          "type": "address"
        },
        {
          "indexed": true,
          "internalType": "address",
          "name": "newAdmin",
          "type": "address"
        }
      ],
      "name": "AdminChanged",
      "type": "event"
    },
    {
      "anonymous": false,
      "inputs": [
        {
          "indexed": true,
          "internalType": "address",
          "name": "factory_",
          "type": "address"
        }
      ],
      "name": "FactoryCreated",
      "type": "event"
    },
    {
      "anonymous": false,
      "inputs": [
        {
          "indexed": true,
          "internalType": "address",
          "name": "sender",
          "type": "address"
        },
        {
          "indexed": false,
          "internalType": "uint256",
          "name": "value",
          "type": "uint256"
        }
      ],
      "name": "FallbackCalled",
      "type": "event"
    },
    {
      "anonymous": false,
      "inputs": [
        {
          "indexed": true,
          "internalType": "address",
          "name": "previousOwner",
          "type": "address"
        },
        {
          "indexed": true,
          "internalType": "address",
          "name": "newOwner",
          "type": "address"
        }
      ],
      "name": "OwnerChanged",
      "type": "event"
    },
    {
      "anonymous": false,
      "inputs": [
        {
          "indexed": false,
          "internalType": "string",
          "name": "name_",
          "type": "string"
        },
        {
          "indexed": false,
          "internalType": "address",
          "name": "swap_",
          "type": "address"
        },
        {
          "indexed": true,
          "internalType": "address",
          "name": "token1_",
          "type": "address"
        },
        {
          "indexed": true,
          "internalType": "address",
          "name": "token2_",
          "type": "address"
        }
      ],
      "name": "SwapCreated",
      "type": "event"
    },
    {
      "stateMutability": "payable",
      "type": "receive",
      "payable": true
    },
    {
      "inputs": [],
      "name": "createTokenFactory",
      "outputs": [
        {
          "internalType": "contract TokenFactory",
          "name": "",
          "type": "address"
        }
      ],
      "stateMutability": "nonpayable",
      "type": "function"
    },
    {
      "inputs": [
        {
          "internalType": "string",
          "name": "name",
          "type": "string"
        },
        {
          "internalType": "contract Token",
          "name": "token1_",
          "type": "address"
        },
        {
          "internalType": "contract Token",
          "name": "token2_",
          "type": "address"
        }
      ],
      "name": "createSwapper",
      "outputs": [
        {
          "internalType": "contract Swap",
          "name": "",
          "type": "address"
        }
      ],
      "stateMutability": "nonpayable",
      "type": "function"
    },
    {
      "inputs": [],
      "name": "getTokenFactory",
      "outputs": [
        {
          "internalType": "contract TokenFactory",
          "name": "",
          "type": "address"
        }
      ],
      "stateMutability": "view",
      "type": "function",
      "constant": true
    },
    {
      "inputs": [],
      "name": "getAdmin",
      "outputs": [
        {
          "internalType": "address",
          "name": "",
          "type": "address"
        }
      ],
      "stateMutability": "view",
      "type": "function",
      "constant": true
    },
    {
      "inputs": [],
      "name": "getOwner",
      "outputs": [
        {
          "internalType": "address",
          "name": "",
          "type": "address"
        }
      ],
      "stateMutability": "view",
      "type": "function",
      "constant": true
    }
  ],
  "bytecode": "0x608060405234801561001057600080fd5b50604051620053d0380380620053d0833981810160405281019061003491906101f0565b60003390506100488161005e60201b60201c565b6100578261011b60201b60201c565b505061026b565b806000806101000a81548173ffffffffffffffffffffffffffffffffffffffff021916908373ffffffffffffffffffffffffffffffffffffffff1602179055508073ffffffffffffffffffffffffffffffffffffffff1660008054906101000a900473ffffffffffffffffffffffffffffffffffffffff1673ffffffffffffffffffffffffffffffffffffffff167f7e644d79422f17c01e4894b5f4f588d331ebfa28653d42ae832dc59e38c9798f60405160405180910390a350565b80600160006101000a81548173ffffffffffffffffffffffffffffffffffffffff021916908373ffffffffffffffffffffffffffffffffffffffff1602179055508073ffffffffffffffffffffffffffffffffffffffff16600160009054906101000a900473ffffffffffffffffffffffffffffffffffffffff1673ffffffffffffffffffffffffffffffffffffffff167fb532073b38c83145e3e5135377a08bf9aab55bc0fd7c1179cd4fb995d2a5159c60405160405180910390a350565b6000815190506101ea81610254565b92915050565b6000602082840312156102065761020561024f565b5b6000610214848285016101db565b91505092915050565b60006102288261022f565b9050919050565b600073ffffffffffffffffffffffffffffffffffffffff82169050919050565b600080fd5b61025d8161021d565b811461026857600080fd5b50565b615155806200027b6000396000f3fe608060405260043610620000555760003560e01c80632a9939e914620000b25780636e9960c314620000e2578063893d20e81462000112578063925d6ba21462000142578063f84809d0146200017257620000ad565b36620000ad573373ffffffffffffffffffffffffffffffffffffffff167f4fdfaf7cd2ae67f3639149bddef2addc991d3f26e0121df03517ec62523649ca34604051620000a39190620006ba565b60405180910390a2005b600080fd5b348015620000bf57600080fd5b50620000ca620001b6565b604051620000d9919062000625565b60405180910390f35b348015620000ef57600080fd5b50620000fa620002f6565b604051620001099190620005eb565b60405180910390f35b3480156200011f57600080fd5b506200012a6200031f565b604051620001399190620005eb565b60405180910390f35b3480156200014f57600080fd5b506200015a62000349565b60405162000169919062000625565b60405180910390f35b3480156200017f57600080fd5b506200019e6004803603810190620001989190620004da565b62000373565b604051620001ad919062000608565b60405180910390f35b60008073ffffffffffffffffffffffffffffffffffffffff16600260009054906101000a900473ffffffffffffffffffffffffffffffffffffffff1673ffffffffffffffffffffffffffffffffffffffff161415620002cd5760006040516200021f9062000429565b604051809103906000f0801580156200023c573d6000803e3d6000fd5b5090508073ffffffffffffffffffffffffffffffffffffffff167fcd011e85967592f54bff824c845ac9b3e769e0f54ba0d66b4d76ac0f77fa2a0060405160405180910390a280600260006101000a81548173ffffffffffffffffffffffffffffffffffffffff021916908373ffffffffffffffffffffffffffffffffffffffff16021790555080915050620002f3565b600260009054906101000a900473ffffffffffffffffffffffffffffffffffffffff1690505b90565b60008060009054906101000a900473ffffffffffffffffffffffffffffffffffffffff16905090565b6000600160009054906101000a900473ffffffffffffffffffffffffffffffffffffffff16905090565b6000600260009054906101000a900473ffffffffffffffffffffffffffffffffffffffff16905090565b600080848484604051620003879062000437565b620003959392919062000676565b604051809103906000f080158015620003b2573d6000803e3d6000fd5b5090508273ffffffffffffffffffffffffffffffffffffffff168473ffffffffffffffffffffffffffffffffffffffff167f47296371d654a8a90b41bac07eec6f39e0c49993f7bb8847720f72f1c67ff75f87846040516200041692919062000642565b60405180910390a3809150509392505050565b61348e806200091a83390190565b6113788062003da883390190565b60006200045c620004568462000700565b620006d7565b9050828152602081018484840111156200047b576200047a620008df565b5b6200048884828562000830565b509392505050565b600081359050620004a181620008ff565b92915050565b600082601f830112620004bf57620004be620008da565b5b8135620004d184826020860162000445565b91505092915050565b600080600060608486031215620004f657620004f5620008e9565b5b600084013567ffffffffffffffff811115620005175762000516620008e4565b5b6200052586828701620004a7565b9350506020620005388682870162000490565b92505060406200054b8682870162000490565b9150509250925092565b620005608162000752565b82525050565b6200057181620007b8565b82525050565b6200058281620007cc565b82525050565b6200059381620007e0565b82525050565b6000620005a68262000736565b620005b2818562000741565b9350620005c48185602086016200083f565b620005cf81620008ee565b840191505092915050565b620005e581620007ae565b82525050565b600060208201905062000602600083018462000555565b92915050565b60006020820190506200061f600083018462000566565b92915050565b60006020820190506200063c600083018462000577565b92915050565b600060408201905081810360008301526200065e818562000599565b90506200066f602083018462000555565b9392505050565b6000606082019050818103600083015262000692818662000599565b9050620006a3602083018562000588565b620006b2604083018462000588565b949350505050565b6000602082019050620006d16000830184620005da565b92915050565b6000620006e3620006f6565b9050620006f1828262000875565b919050565b6000604051905090565b600067ffffffffffffffff8211156200071e576200071d620008ab565b5b6200072982620008ee565b9050602081019050919050565b600081519050919050565b600082825260208201905092915050565b60006200075f826200078e565b9050919050565b600062000773826200078e565b9050919050565b6000620007878262000766565b9050919050565b600073ffffffffffffffffffffffffffffffffffffffff82169050919050565b6000819050919050565b6000620007c582620007f4565b9050919050565b6000620007d982620007f4565b9050919050565b6000620007ed8262000808565b9050919050565b600062000801826200081c565b9050919050565b600062000815826200081c565b9050919050565b600062000829826200078e565b9050919050565b82818337600083830152505050565b60005b838110156200085f57808201518184015260208101905062000842565b838111156200086f576000848401525b50505050565b6200088082620008ee565b810181811067ffffffffffffffff82111715620008a257620008a1620008ab565b5b80604052505050565b7f4e487b7100000000000000000000000000000000000000000000000000000000600052604160045260246000fd5b600080fd5b600080fd5b600080fd5b600080fd5b6000601f19601f8301169050919050565b6200090a816200077a565b81146200091657600080fd5b5056fe608060405234801561001057600080fd5b506000339050806000806101000a81548173ffffffffffffffffffffffffffffffffffffffff021916908373ffffffffffffffffffffffffffffffffffffffff16021790555050613428806100666000396000f3fe60806040523480156200001157600080fd5b50600436106200002e5760003560e01c806356f698a31462000033575b600080fd5b6200005160048036038101906200004b919062000243565b62000069565b604051620000609190620003a6565b60405180910390f35b600080858585856040516200007e90620001a0565b6200008d9493929190620003c3565b604051809103906000f080158015620000aa573d6000803e3d6000fd5b509050600081905080600187604051620000c591906200038d565b908152602001604051809103902060006101000a81548173ffffffffffffffffffffffffffffffffffffffff021916908373ffffffffffffffffffffffffffffffffffffffff160217905550856040516200012191906200038d565b6040518091039020876040516200013991906200038d565b60405180910390208273ffffffffffffffffffffffffffffffffffffffff167f67cc2637dc8147ee999178ad9002b9fcccdde83ae7a8664c59f49ed2cceb2e6288886040516200018b9291906200041e565b60405180910390a48192505050949350505050565b612dd2806200062183390190565b6000620001c5620001bf8462000474565b6200044b565b905082815260208101848484011115620001e457620001e3620005e6565b5b620001f184828562000537565b509392505050565b600082601f830112620002115762000210620005e1565b5b813562000223848260208601620001ae565b91505092915050565b6000813590506200023d8162000606565b92915050565b6000806000806080858703121562000260576200025f620005f0565b5b600085013567ffffffffffffffff811115620002815762000280620005eb565b5b6200028f87828801620001f9565b945050602085013567ffffffffffffffff811115620002b357620002b2620005eb565b5b620002c187828801620001f9565b9350506040620002d4878288016200022c565b9250506060620002e7878288016200022c565b91505092959194509250565b620002fe81620004fb565b82525050565b60006200031182620004aa565b6200031d8185620004b5565b93506200032f81856020860162000546565b6200033a81620005f5565b840191505092915050565b60006200035282620004aa565b6200035e8185620004c6565b93506200037081856020860162000546565b80840191505092915050565b6200038781620004f1565b82525050565b60006200039b828462000345565b915081905092915050565b6000602082019050620003bd6000830184620002f3565b92915050565b60006080820190508181036000830152620003df818762000304565b90508181036020830152620003f5818662000304565b90506200040660408301856200037c565b6200041560608301846200037c565b95945050505050565b60006040820190506200043560008301856200037c565b6200044460208301846200037c565b9392505050565b6000620004576200046a565b90506200046582826200057c565b919050565b6000604051905090565b600067ffffffffffffffff821115620004925762000491620005b2565b5b6200049d82620005f5565b9050602081019050919050565b600081519050919050565b600082825260208201905092915050565b600081905092915050565b600073ffffffffffffffffffffffffffffffffffffffff82169050919050565b6000819050919050565b600062000508826200050f565b9050919050565b60006200051c8262000523565b9050919050565b60006200053082620004d1565b9050919050565b82818337600083830152505050565b60005b838110156200056657808201518184015260208101905062000549565b8381111562000576576000848401525b50505050565b6200058782620005f5565b810181811067ffffffffffffffff82111715620005a957620005a8620005b2565b5b80604052505050565b7f4e487b7100000000000000000000000000000000000000000000000000000000600052604160045260246000fd5b600080fd5b600080fd5b600080fd5b600080fd5b6000601f19601f8301169050919050565b6200061181620004f1565b81146200061d57600080fd5b5056fe608060405260405162002dd238038062002dd2833981810160405281019062000029919062000780565b60003390506200003f81620000bf60201b60201c565b50600033905084600290805190602001906200005d9291906200063b565b508360039080519060200190620000769291906200063b565b50826004819055506200008f81620000bf60201b60201c565b620000a082620001a360201b60201c565b620000b430600554620002d960201b60201c565b505050505062000dc1565b60008060009054906101000a900473ffffffffffffffffffffffffffffffffffffffff169050816000806101000a81548173ffffffffffffffffffffffffffffffffffffffff021916908373ffffffffffffffffffffffffffffffffffffffff16021790555060008054906101000a900473ffffffffffffffffffffffffffffffffffffffff1673ffffffffffffffffffffffffffffffffffffffff168173ffffffffffffffffffffffffffffffffffffffff167f7e644d79422f17c01e4894b5f4f588d331ebfa28653d42ae832dc59e38c9798f60405160405180910390a35050565b620001b36200061260201b60201c565b73ffffffffffffffffffffffffffffffffffffffff163373ffffffffffffffffffffffffffffffffffffffff1614806200021857503073ffffffffffffffffffffffffffffffffffffffff163373ffffffffffffffffffffffffffffffffffffffff16145b6200025a576040517f08c379a000000000000000000000000000000000000000000000000000000000815260040162000251906200094d565b60405180910390fd5b33600073ffffffffffffffffffffffffffffffffffffffff168173ffffffffffffffffffffffffffffffffffffffff161415620002ce576040517f08c379a0000000000000000000000000000000000000000000000000000000008152600401620002c5906200092b565b60405180910390fd5b816005819055505050565b620002e96200061260201b60201c565b73ffffffffffffffffffffffffffffffffffffffff163373ffffffffffffffffffffffffffffffffffffffff1614806200034e57503073ffffffffffffffffffffffffffffffffffffffff163373ffffffffffffffffffffffffffffffffffffffff16145b62000390576040517f08c379a000000000000000000000000000000000000000000000000000000000815260040162000387906200094d565b60405180910390fd5b81600073ffffffffffffffffffffffffffffffffffffffff168173ffffffffffffffffffffffffffffffffffffffff16141562000404576040517f08c379a0000000000000000000000000000000000000000000000000000000008152600401620003fb906200092b565b60405180910390fd5b8160008114156200044c576040517f08c379a00000000000000000000000000000000000000000000000000000000081526004016200044390620009d5565b60405180910390fd5b6000811162000492576040517f08c379a00000000000000000000000000000000000000000000000000000000081526004016200048990620009b3565b60405180910390fd5b600554811115620004da576040517f08c379a0000000000000000000000000000000000000000000000000000000008152600401620004d1906200096f565b60405180910390fd5b60055481600654620004ed919062000a84565b111562000531576040517f08c379a0000000000000000000000000000000000000000000000000000000008152600401620005289062000991565b60405180910390fd5b82600760008673ffffffffffffffffffffffffffffffffffffffff1673ffffffffffffffffffffffffffffffffffffffff168152602001908152602001600020600082825462000582919062000a84565b9250508190555082600660008282546200059d919062000a84565b925050819055508373ffffffffffffffffffffffffffffffffffffffff16600073ffffffffffffffffffffffffffffffffffffffff167fddf252ad1be2c89b69c2b068fc378daa952ba7f163c4a11628f55a4df523b3ef85604051620006049190620009f7565b60405180910390a350505050565b60008060009054906101000a900473ffffffffffffffffffffffffffffffffffffffff16905090565b828054620006499062000b21565b90600052602060002090601f0160209004810192826200066d5760008555620006b9565b82601f106200068857805160ff1916838001178555620006b9565b82800160010185558215620006b9579182015b82811115620006b85782518255916020019190600101906200069b565b5b509050620006c89190620006cc565b5090565b5b80821115620006e7576000816000905550600101620006cd565b5090565b600062000702620006fc8462000a3d565b62000a14565b90508281526020810184848401111562000721576200072062000c1f565b5b6200072e84828562000aeb565b509392505050565b600082601f8301126200074e576200074d62000c1a565b5b815162000760848260208601620006eb565b91505092915050565b6000815190506200077a8162000da7565b92915050565b600080600080608085870312156200079d576200079c62000c29565b5b600085015167ffffffffffffffff811115620007be57620007bd62000c24565b5b620007cc8782880162000736565b945050602085015167ffffffffffffffff811115620007f057620007ef62000c24565b5b620007fe8782880162000736565b9350506040620008118782880162000769565b9250506060620008248782880162000769565b91505092959194509250565b60006200083f60258362000a73565b91506200084c8262000c3f565b604082019050919050565b60006200086660168362000a73565b9150620008738262000c8e565b602082019050919050565b60006200088d601f8362000a73565b91506200089a8262000cb7565b602082019050919050565b6000620008b460498362000a73565b9150620008c18262000ce0565b606082019050919050565b6000620008db601a8362000a73565b9150620008e88262000d55565b602082019050919050565b60006200090260158362000a73565b91506200090f8262000d7e565b602082019050919050565b620009258162000ae1565b82525050565b60006020820190508181036000830152620009468162000830565b9050919050565b60006020820190508181036000830152620009688162000857565b9050919050565b600060208201905081810360008301526200098a816200087e565b9050919050565b60006020820190508181036000830152620009ac81620008a5565b9050919050565b60006020820190508181036000830152620009ce81620008cc565b9050919050565b60006020820190508181036000830152620009f081620008f3565b9050919050565b600060208201905062000a0e60008301846200091a565b92915050565b600062000a2062000a33565b905062000a2e828262000b57565b919050565b6000604051905090565b600067ffffffffffffffff82111562000a5b5762000a5a62000beb565b5b62000a668262000c2e565b9050602081019050919050565b600082825260208201905092915050565b600062000a918262000ae1565b915062000a9e8362000ae1565b9250827fffffffffffffffffffffffffffffffffffffffffffffffffffffffffffffffff0382111562000ad65762000ad562000b8d565b5b828201905092915050565b6000819050919050565b60005b8381101562000b0b57808201518184015260208101905062000aee565b8381111562000b1b576000848401525b50505050565b6000600282049050600182168062000b3a57607f821691505b6020821081141562000b515762000b5062000bbc565b5b50919050565b62000b628262000c2e565b810181811067ffffffffffffffff8211171562000b845762000b8362000beb565b5b80604052505050565b7f4e487b7100000000000000000000000000000000000000000000000000000000600052601160045260246000fd5b7f4e487b7100000000000000000000000000000000000000000000000000000000600052602260045260246000fd5b7f4e487b7100000000000000000000000000000000000000000000000000000000600052604160045260246000fd5b600080fd5b600080fd5b600080fd5b600080fd5b6000601f19601f8301169050919050565b7f43616e6e6f74207472616e73616374207769746820746865207a65726f20616460008201527f6472657373000000000000000000000000000000000000000000000000000000602082015250565b7f4d75737420626520636f6e74726163742061646d696e00000000000000000000600082015250565b7f4d757374206265206c657373207468616e20746f74616c20737570706c792e00600082015250565b7f5468697320776f756c642063617573652074686520746f74616c206d696e746560008201527f6420636f696e7320746f206265206d6f7265207468616e2074686520746f746160208201527f6c20737570706c792e0000000000000000000000000000000000000000000000604082015250565b7f4d757374206265206120706f736974697665206e756d6265722e000000000000600082015250565b7f4e756d6265722063616e6e6f74206265207a65726f0000000000000000000000600082015250565b62000db28162000ae1565b811462000dbe57600080fd5b50565b6120018062000dd16000396000f3fe6080604052600436106100f75760003560e01c80636e9960c31161008a578063a9059cbb11610059578063a9059cbb146103bf578063b09f1266146103fc578063d28d885214610427578063dd62ed3e146104525761014c565b80636e9960c3146102ef5780636ebcf6071461031a57806370a0823114610357578063a2309ff8146103945761014c565b806323b872dd116100c657806323b872dd1461022157806330ca13871461025e57806340c10f191461028957806352ec8529146102b25761014c565b8063024c2ddd14610151578063095ea7b31461018e5780630ca1c5c9146101cb57806318160ddd146101f65761014c565b3661014c573373ffffffffffffffffffffffffffffffffffffffff167ffbf15a1bae5e021d024841007b692b167afd2a281a4ff0b44f47387eb388205c3460405161014291906119b2565b60405180910390a2005b600080fd5b34801561015d57600080fd5b5061017860048036038101906101739190611434565b61048f565b60405161018591906119b2565b60405180910390f35b34801561019a57600080fd5b506101b560048036038101906101b091906114c7565b6104b4565b6040516101c29190611795565b60405180910390f35b3480156101d757600080fd5b506101e061068c565b6040516101ed91906119b2565b60405180910390f35b34801561020257600080fd5b5061020b610696565b60405161021891906119b2565b60405180910390f35b34801561022d57600080fd5b5061024860048036038101906102439190611474565b61069c565b6040516102559190611795565b60405180910390f35b34801561026a57600080fd5b50610273610889565b60405161028091906119b2565b60405180910390f35b34801561029557600080fd5b506102b060048036038101906102ab91906114c7565b61088f565b005b3480156102be57600080fd5b506102d960048036038101906102d49190611474565b610ba5565b6040516102e69190611795565b60405180910390f35b3480156102fb57600080fd5b50610304610cd7565b604051610311919061177a565b60405180910390f35b34801561032657600080fd5b50610341600480360381019061033c9190611407565b610d00565b60405161034e91906119b2565b60405180910390f35b34801561036357600080fd5b5061037e60048036038101906103799190611407565b610d18565b60405161038b91906119b2565b60405180910390f35b3480156103a057600080fd5b506103a9610d61565b6040516103b691906119b2565b60405180910390f35b3480156103cb57600080fd5b506103e660048036038101906103e191906114c7565b610d67565b6040516103f39190611795565b60405180910390f35b34801561040857600080fd5b50610411610df0565b60405161041e91906117b0565b60405180910390f35b34801561043357600080fd5b5061043c610e7e565b60405161044991906117b0565b60405180910390f35b34801561045e57600080fd5b5061047960048036038101906104749190611434565b610f0c565b60405161048691906119b2565b60405180910390f35b6008602052816000526040600020602052806000526040600020600091509150505481565b600033600073ffffffffffffffffffffffffffffffffffffffff168173ffffffffffffffffffffffffffffffffffffffff161415610527576040517f08c379a000000000000000000000000000000000000000000000000000000000815260040161051e90611872565b60405180910390fd5b6000339050600073ffffffffffffffffffffffffffffffffffffffff168173ffffffffffffffffffffffffffffffffffffffff161415806105955750600073ffffffffffffffffffffffffffffffffffffffff168573ffffffffffffffffffffffffffffffffffffffff1614155b6105d4576040517f08c379a00000000000000000000000000000000000000000000000000000000081526004016105cb90611932565b60405180910390fd5b600554846105e29190611a3f565b841015610624576040517f08c379a000000000000000000000000000000000000000000000000000000000815260040161061b906117f2565b60405180910390fd5b600061062f86610d18565b905080851015610674576040517f08c379a000000000000000000000000000000000000000000000000000000000815260040161066b906118f2565b60405180910390fd5b61067f82878761103a565b6001935050505092915050565b6000600654905090565b60055481565b600033600073ffffffffffffffffffffffffffffffffffffffff168173ffffffffffffffffffffffffffffffffffffffff16141561070f576040517f08c379a000000000000000000000000000000000000000000000000000000000815260040161070690611872565b60405180910390fd5b600260ff16600060149054906101000a900460ff1660ff161415610768576040517f08c379a000000000000000000000000000000000000000000000000000000000815260040161075f906118b2565b60405180910390fd5b6002600060146101000a81548160ff021916908360ff16021790555061078f858585611125565b6000600860008773ffffffffffffffffffffffffffffffffffffffff1673ffffffffffffffffffffffffffffffffffffffff16815260200190815260200160002060003373ffffffffffffffffffffffffffffffffffffffff1673ffffffffffffffffffffffffffffffffffffffff16815260200190815260200160002054905083811015610853576040517f08c379a000000000000000000000000000000000000000000000000000000000815260040161084a90611852565b60405180910390fd5b610860863386840361103a565b60019250506001600060146101000a81548160ff021916908360ff160217905550509392505050565b60045481565b610897610cd7565b73ffffffffffffffffffffffffffffffffffffffff163373ffffffffffffffffffffffffffffffffffffffff1614806108fb57503073ffffffffffffffffffffffffffffffffffffffff163373ffffffffffffffffffffffffffffffffffffffff16145b61093a576040517f08c379a000000000000000000000000000000000000000000000000000000000815260040161093190611892565b60405180910390fd5b81600073ffffffffffffffffffffffffffffffffffffffff168173ffffffffffffffffffffffffffffffffffffffff1614156109ab576040517f08c379a00000000000000000000000000000000000000000000000000000000081526004016109a290611872565b60405180910390fd5b8160008114156109f0576040517f08c379a00000000000000000000000000000000000000000000000000000000081526004016109e790611992565b60405180910390fd5b60008111610a33576040517f08c379a0000000000000000000000000000000000000000000000000000000008152600401610a2a90611972565b60405180910390fd5b600554811115610a78576040517f08c379a0000000000000000000000000000000000000000000000000000000008152600401610a6f90611912565b60405180910390fd5b60055481600654610a8991906119e9565b1115610aca576040517f08c379a0000000000000000000000000000000000000000000000000000000008152600401610ac190611952565b60405180910390fd5b82600760008673ffffffffffffffffffffffffffffffffffffffff1673ffffffffffffffffffffffffffffffffffffffff1681526020019081526020016000206000828254610b1991906119e9565b925050819055508260066000828254610b3291906119e9565b925050819055508373ffffffffffffffffffffffffffffffffffffffff16600073ffffffffffffffffffffffffffffffffffffffff167fddf252ad1be2c89b69c2b068fc378daa952ba7f163c4a11628f55a4df523b3ef85604051610b9791906119b2565b60405180910390a350505050565b600033600073ffffffffffffffffffffffffffffffffffffffff168173ffffffffffffffffffffffffffffffffffffffff161415610c18576040517f08c379a0000000000000000000000000000000000000000000000000000000008152600401610c0f90611872565b60405180910390fd5b600073ffffffffffffffffffffffffffffffffffffffff168573ffffffffffffffffffffffffffffffffffffffff16141580610c815750600073ffffffffffffffffffffffffffffffffffffffff168473ffffffffffffffffffffffffffffffffffffffff1614155b610cc0576040517f08c379a0000000000000000000000000000000000000000000000000000000008152600401610cb790611932565b60405180910390fd5b610ccb85858561103a565b60019150509392505050565b60008060009054906101000a900473ffffffffffffffffffffffffffffffffffffffff16905090565b60076020528060005260406000206000915090505481565b6000600760008373ffffffffffffffffffffffffffffffffffffffff1673ffffffffffffffffffffffffffffffffffffffff168152602001908152602001600020549050919050565b60065481565b600033600073ffffffffffffffffffffffffffffffffffffffff168173ffffffffffffffffffffffffffffffffffffffff161415610dda576040517f08c379a0000000000000000000000000000000000000000000000000000000008152600401610dd190611872565b60405180910390fd5b610de5338585611125565b600191505092915050565b60038054610dfd90611aee565b80601f0160208091040260200160405190810160405280929190818152602001828054610e2990611aee565b8015610e765780601f10610e4b57610100808354040283529160200191610e76565b820191906000526020600020905b815481529060010190602001808311610e5957829003601f168201915b505050505081565b60028054610e8b90611aee565b80601f0160208091040260200160405190810160405280929190818152602001828054610eb790611aee565b8015610f045780601f10610ed957610100808354040283529160200191610f04565b820191906000526020600020905b815481529060010190602001808311610ee757829003601f168201915b505050505081565b60008073ffffffffffffffffffffffffffffffffffffffff168373ffffffffffffffffffffffffffffffffffffffff16141580610f765750600073ffffffffffffffffffffffffffffffffffffffff168273ffffffffffffffffffffffffffffffffffffffff1614155b610fb5576040517f08c379a0000000000000000000000000000000000000000000000000000000008152600401610fac90611832565b60405180910390fd5b600860008473ffffffffffffffffffffffffffffffffffffffff1673ffffffffffffffffffffffffffffffffffffffff16815260200190815260200160002060008373ffffffffffffffffffffffffffffffffffffffff1673ffffffffffffffffffffffffffffffffffffffff16815260200190815260200160002054905092915050565b80600860008573ffffffffffffffffffffffffffffffffffffffff1673ffffffffffffffffffffffffffffffffffffffff16815260200190815260200160002060008473ffffffffffffffffffffffffffffffffffffffff1673ffffffffffffffffffffffffffffffffffffffff168152602001908152602001600020819055508173ffffffffffffffffffffffffffffffffffffffff168373ffffffffffffffffffffffffffffffffffffffff167f8c5be1e5ebec7d5bd14f71427d1e84f3dd0314c0f7b2291e5b200ac8c7c3b9258360405161111891906119b2565b60405180910390a3505050565b600073ffffffffffffffffffffffffffffffffffffffff168373ffffffffffffffffffffffffffffffffffffffff161415611195576040517f08c379a000000000000000000000000000000000000000000000000000000000815260040161118c906118d2565b60405180910390fd5b600073ffffffffffffffffffffffffffffffffffffffff168273ffffffffffffffffffffffffffffffffffffffff161415611205576040517f08c379a00000000000000000000000000000000000000000000000000000000081526004016111fc906117d2565b60405180910390fd5b6000600760008573ffffffffffffffffffffffffffffffffffffffff1673ffffffffffffffffffffffffffffffffffffffff1681526020019081526020016000205490506000600760008573ffffffffffffffffffffffffffffffffffffffff1673ffffffffffffffffffffffffffffffffffffffff1681526020019081526020016000205490506000838261129b91906119e9565b9050838310156112e0576040517f08c379a00000000000000000000000000000000000000000000000000000000081526004016112d790611812565b60405180910390fd5b6000848403905080600760008973ffffffffffffffffffffffffffffffffffffffff1673ffffffffffffffffffffffffffffffffffffffff168152602001908152602001600020819055505080600760008773ffffffffffffffffffffffffffffffffffffffff1673ffffffffffffffffffffffffffffffffffffffff168152602001908152602001600020819055508473ffffffffffffffffffffffffffffffffffffffff168673ffffffffffffffffffffffffffffffffffffffff167fddf252ad1be2c89b69c2b068fc378daa952ba7f163c4a11628f55a4df523b3ef866040516113cd91906119b2565b60405180910390a3505050505050565b6000813590506113ec81611f9d565b92915050565b60008135905061140181611fb4565b92915050565b60006020828403121561141d5761141c611b7e565b5b600061142b848285016113dd565b91505092915050565b6000806040838503121561144b5761144a611b7e565b5b6000611459858286016113dd565b925050602061146a858286016113dd565b9150509250929050565b60008060006060848603121561148d5761148c611b7e565b5b600061149b868287016113dd565b93505060206114ac868287016113dd565b92505060406114bd868287016113f2565b9150509250925092565b600080604083850312156114de576114dd611b7e565b5b60006114ec858286016113dd565b92505060206114fd858286016113f2565b9150509250929050565b61151081611a73565b82525050565b61151f81611a85565b82525050565b6000611530826119cd565b61153a81856119d8565b935061154a818560208601611abb565b61155381611b83565b840191505092915050565b600061156b6023836119d8565b915061157682611b94565b604082019050919050565b600061158e6026836119d8565b915061159982611be3565b604082019050919050565b60006115b16026836119d8565b91506115bc82611c32565b604082019050919050565b60006115d46021836119d8565b91506115df82611c81565b604082019050919050565b60006115f76028836119d8565b915061160282611cd0565b604082019050919050565b600061161a6025836119d8565b915061162582611d1f565b604082019050919050565b600061163d6016836119d8565b915061164882611d6e565b602082019050919050565b6000611660600e836119d8565b915061166b82611d97565b602082019050919050565b60006116836025836119d8565b915061168e82611dc0565b604082019050919050565b60006116a66027836119d8565b91506116b182611e0f565b604082019050919050565b60006116c9601f836119d8565b91506116d482611e5e565b602082019050919050565b60006116ec6024836119d8565b91506116f782611e87565b604082019050919050565b600061170f6049836119d8565b915061171a82611ed6565b606082019050919050565b6000611732601a836119d8565b915061173d82611f4b565b602082019050919050565b60006117556015836119d8565b915061176082611f74565b602082019050919050565b61177481611ab1565b82525050565b600060208201905061178f6000830184611507565b92915050565b60006020820190506117aa6000830184611516565b92915050565b600060208201905081810360008301526117ca8184611525565b905092915050565b600060208201905081810360008301526117eb8161155e565b9050919050565b6000602082019050818103600083015261180b81611581565b9050919050565b6000602082019050818103600083015261182b816115a4565b9050919050565b6000602082019050818103600083015261184b816115c7565b9050919050565b6000602082019050818103600083015261186b816115ea565b9050919050565b6000602082019050818103600083015261188b8161160d565b9050919050565b600060208201905081810360008301526118ab81611630565b9050919050565b600060208201905081810360008301526118cb81611653565b9050919050565b600060208201905081810360008301526118eb81611676565b9050919050565b6000602082019050818103600083015261190b81611699565b9050919050565b6000602082019050818103600083015261192b816116bc565b9050919050565b6000602082019050818103600083015261194b816116df565b9050919050565b6000602082019050818103600083015261196b81611702565b9050919050565b6000602082019050818103600083015261198b81611725565b9050919050565b600060208201905081810360008301526119ab81611748565b9050919050565b60006020820190506119c7600083018461176b565b92915050565b600081519050919050565b600082825260208201905092915050565b60006119f482611ab1565b91506119ff83611ab1565b9250827fffffffffffffffffffffffffffffffffffffffffffffffffffffffffffffffff03821115611a3457611a33611b20565b5b828201905092915050565b6000611a4a82611ab1565b9150611a5583611ab1565b925082821015611a6857611a67611b20565b5b828203905092915050565b6000611a7e82611a91565b9050919050565b60008115159050919050565b600073ffffffffffffffffffffffffffffffffffffffff82169050919050565b6000819050919050565b60005b83811015611ad9578082015181840152602081019050611abe565b83811115611ae8576000848401525b50505050565b60006002820490506001821680611b0657607f821691505b60208210811415611b1a57611b19611b4f565b5b50919050565b7f4e487b7100000000000000000000000000000000000000000000000000000000600052601160045260246000fd5b7f4e487b7100000000000000000000000000000000000000000000000000000000600052602260045260246000fd5b600080fd5b6000601f19601f8301169050919050565b7f45524332303a207472616e7366657220746f20746865207a65726f206164647260008201527f6573730000000000000000000000000000000000000000000000000000000000602082015250565b7f417070726f76616c20776f756c64206578636565642074686520746f74616c2060008201527f737570706c790000000000000000000000000000000000000000000000000000602082015250565b7f45524332303a207472616e7366657220616d6f756e742065786365656473206260008201527f616c616e63650000000000000000000000000000000000000000000000000000602082015250565b7f45524332303a206d696e742066726f6d20746865207a65726f2061646472657360008201527f7300000000000000000000000000000000000000000000000000000000000000602082015250565b7f45524332303a207472616e7366657220616d6f756e742065786365656473206160008201527f6c6c6f77616e6365000000000000000000000000000000000000000000000000602082015250565b7f43616e6e6f74207472616e73616374207769746820746865207a65726f20616460008201527f6472657373000000000000000000000000000000000000000000000000000000602082015250565b7f4d75737420626520636f6e74726163742061646d696e00000000000000000000600082015250565b7f5265656e7472616e742063616c6c000000000000000000000000000000000000600082015250565b7f45524332303a207472616e736665722066726f6d20746865207a65726f20616460008201527f6472657373000000000000000000000000000000000000000000000000000000602082015250565b7f417070726f76616c20776f756c6420657863656564207370656e64657227732060008201527f62616c616e636500000000000000000000000000000000000000000000000000602082015250565b7f4d757374206265206c657373207468616e20746f74616c20737570706c792e00600082015250565b7f45524332303a20617070726f76652066726f6d20746865207a65726f2061646460008201527f7265737300000000000000000000000000000000000000000000000000000000602082015250565b7f5468697320776f756c642063617573652074686520746f74616c206d696e746560008201527f6420636f696e7320746f206265206d6f7265207468616e2074686520746f746160208201527f6c20737570706c792e0000000000000000000000000000000000000000000000604082015250565b7f4d757374206265206120706f736974697665206e756d6265722e000000000000600082015250565b7f4e756d6265722063616e6e6f74206265207a65726f0000000000000000000000600082015250565b611fa681611a73565b8114611fb157600080fd5b50565b611fbd81611ab1565b8114611fc857600080fd5b5056fea26469706673582212200aa528956efd25c137249755d8264ab861cdc7442a3ad0e972151a07d2f88c6664736f6c63430008070033a26469706673582212208ea548c92efcfd3abf197c6cc0c6a228aa371a52122874f069cf27b26d07509a64736f6c6343000807003360806040523480156200001157600080fd5b506040516200137838038062001378833981810160405281019062000037919062000479565b3073ffffffffffffffffffffffffffffffffffffffff16836040516200005e91906200055d565b60405180910390207f53825a0bd9819b967b6cb6fbc636e04cfe136b968b9e6285167471e741932dc560405160405180910390a36000339050620000a8816200025d60201b60201c565b8360019080519060200190620000c09291906200031d565b5082600260006101000a81548173ffffffffffffffffffffffffffffffffffffffff021916908373ffffffffffffffffffffffffffffffffffffffff16021790555081600360006101000a81548173ffffffffffffffffffffffffffffffffffffffff021916908373ffffffffffffffffffffffffffffffffffffffff1602179055508273ffffffffffffffffffffffffffffffffffffffff166318160ddd6040518163ffffffff1660e01b815260040160206040518083038186803b1580156200018a57600080fd5b505afa1580156200019f573d6000803e3d6000fd5b505050506040513d601f19601f82011682018060405250810190620001c59190620004f4565b6006819055508173ffffffffffffffffffffffffffffffffffffffff166318160ddd6040518163ffffffff1660e01b815260040160206040518083038186803b1580156200021257600080fd5b505afa15801562000227573d6000803e3d6000fd5b505050506040513d601f19601f820116820180604052508101906200024d9190620004f4565b6007819055505050505062000796565b80600060016101000a81548173ffffffffffffffffffffffffffffffffffffffff021916908373ffffffffffffffffffffffffffffffffffffffff1602179055508073ffffffffffffffffffffffffffffffffffffffff16600060019054906101000a900473ffffffffffffffffffffffffffffffffffffffff1673ffffffffffffffffffffffffffffffffffffffff167f7e644d79422f17c01e4894b5f4f588d331ebfa28653d42ae832dc59e38c9798f60405160405180910390a350565b8280546200032b9062000673565b90600052602060002090601f0160209004810192826200034f57600085556200039b565b82601f106200036a57805160ff19168380011785556200039b565b828001600101855582156200039b579182015b828111156200039a5782518255916020019190600101906200037d565b5b509050620003aa9190620003ae565b5090565b5b80821115620003c9576000816000905550600101620003af565b5090565b6000620003e4620003de846200059f565b62000576565b90508281526020810184848401111562000403576200040262000742565b5b620004108482856200063d565b509392505050565b600081519050620004298162000762565b92915050565b600082601f8301126200044757620004466200073d565b5b815162000459848260208601620003cd565b91505092915050565b60008151905062000473816200077c565b92915050565b6000806000606084860312156200049557620004946200074c565b5b600084015167ffffffffffffffff811115620004b657620004b562000747565b5b620004c4868287016200042f565b9350506020620004d78682870162000418565b9250506040620004ea8682870162000418565b9150509250925092565b6000602082840312156200050d576200050c6200074c565b5b60006200051d8482850162000462565b91505092915050565b60006200053382620005d5565b6200053f8185620005e0565b9350620005518185602086016200063d565b80840191505092915050565b60006200056b828462000526565b915081905092915050565b60006200058262000595565b9050620005908282620006a9565b919050565b6000604051905090565b600067ffffffffffffffff821115620005bd57620005bc6200070e565b5b620005c88262000751565b9050602081019050919050565b600081519050919050565b600081905092915050565b6000620005f88262000613565b9050919050565b60006200060c82620005eb565b9050919050565b600073ffffffffffffffffffffffffffffffffffffffff82169050919050565b6000819050919050565b60005b838110156200065d57808201518184015260208101905062000640565b838111156200066d576000848401525b50505050565b600060028204905060018216806200068c57607f821691505b60208210811415620006a357620006a2620006df565b5b50919050565b620006b48262000751565b810181811067ffffffffffffffff82111715620006d657620006d56200070e565b5b80604052505050565b7f4e487b7100000000000000000000000000000000000000000000000000000000600052602260045260246000fd5b7f4e487b7100000000000000000000000000000000000000000000000000000000600052604160045260246000fd5b600080fd5b600080fd5b600080fd5b600080fd5b6000601f19601f8301169050919050565b6200076d81620005ff565b81146200077957600080fd5b50565b620007878162000633565b81146200079357600080fd5b50565b610bd280620007a66000396000f3fe608060405234801561001057600080fd5b50600436106100415760003560e01c806306fdde0314610046578063171b32761461006457806394b918de14610080575b600080fd5b61004e61009c565b60405161005b91906109ac565b60405180910390f35b61007e600480360381019061007991906108ab565b61012a565b005b61009a600480360381019061009591906108ab565b61036b565b005b600180546100a990610aa5565b80601f01602080910402602001604051908101604052809291908181526020018280546100d590610aa5565b80156101225780601f106100f757610100808354040283529160200191610122565b820191906000526020600020905b81548152906001019060200180831161010557829003601f168201915b505050505081565b600260ff1660008054906101000a900460ff1660ff161415610181576040517f08c379a0000000000000000000000000000000000000000000000000000000008152600401610178906109ce565b60405180910390fd5b60026000806101000a81548160ff021916908360ff160217905550600260009054906101000a900473ffffffffffffffffffffffffffffffffffffffff1673ffffffffffffffffffffffffffffffffffffffff166352ec8529600360009054906101000a900473ffffffffffffffffffffffffffffffffffffffff1630846040518463ffffffff1660e01b815260040161021d93929190610975565b602060405180830381600087803b15801561023757600080fd5b505af115801561024b573d6000803e3d6000fd5b505050506040513d601f19601f8201168201806040525081019061026f919061087e565b50600360009054906101000a900473ffffffffffffffffffffffffffffffffffffffff1673ffffffffffffffffffffffffffffffffffffffff166352ec8529600260009054906101000a900473ffffffffffffffffffffffffffffffffffffffff1630846040518463ffffffff1660e01b81526004016102f193929190610975565b602060405180830381600087803b15801561030b57600080fd5b505af115801561031f573d6000803e3d6000fd5b505050506040513d601f19601f82011682018060405250810190610343919061087e565b5061034d816105ac565b60016000806101000a81548160ff021916908360ff16021790555050565b600260ff1660008054906101000a900460ff1660ff1614156103c2576040517f08c379a00000000000000000000000000000000000000000000000000000000081526004016103b9906109ce565b60405180910390fd5b60026000806101000a81548160ff021916908360ff160217905550600260009054906101000a900473ffffffffffffffffffffffffffffffffffffffff1673ffffffffffffffffffffffffffffffffffffffff166352ec8529600260009054906101000a900473ffffffffffffffffffffffffffffffffffffffff1630846040518463ffffffff1660e01b815260040161045e93929190610975565b602060405180830381600087803b15801561047857600080fd5b505af115801561048c573d6000803e3d6000fd5b505050506040513d601f19601f820116820180604052508101906104b0919061087e565b50600360009054906101000a900473ffffffffffffffffffffffffffffffffffffffff1673ffffffffffffffffffffffffffffffffffffffff166352ec8529600360009054906101000a900473ffffffffffffffffffffffffffffffffffffffff1630846040518463ffffffff1660e01b815260040161053293929190610975565b602060405180830381600087803b15801561054c57600080fd5b505af1158015610560573d6000803e3d6000fd5b505050506040513d601f19601f82011682018060405250810190610584919061087e565b5061058e81610693565b60016000806101000a81548160ff021916908360ff16021790555050565b61061e600260009054906101000a900473ffffffffffffffffffffffffffffffffffffffff16600360009054906101000a900473ffffffffffffffffffffffffffffffffffffffff16600260009054906101000a900473ffffffffffffffffffffffffffffffffffffffff168461077a565b610690600360009054906101000a900473ffffffffffffffffffffffffffffffffffffffff16600260009054906101000a900473ffffffffffffffffffffffffffffffffffffffff16600360009054906101000a900473ffffffffffffffffffffffffffffffffffffffff168461077a565b50565b610705600260009054906101000a900473ffffffffffffffffffffffffffffffffffffffff16600260009054906101000a900473ffffffffffffffffffffffffffffffffffffffff16600360009054906101000a900473ffffffffffffffffffffffffffffffffffffffff168461077a565b610777600360009054906101000a900473ffffffffffffffffffffffffffffffffffffffff16600360009054906101000a900473ffffffffffffffffffffffffffffffffffffffff16600260009054906101000a900473ffffffffffffffffffffffffffffffffffffffff168461077a565b50565b60008473ffffffffffffffffffffffffffffffffffffffff166323b872dd8585856040518463ffffffff1660e01b81526004016107b993929190610975565b602060405180830381600087803b1580156107d357600080fd5b505af11580156107e7573d6000803e3d6000fd5b505050506040513d601f19601f8201168201806040525081019061080b919061087e565b90508061084d576040517f08c379a0000000000000000000000000000000000000000000000000000000008152600401610844906109ee565b60405180910390fd5b5050505050565b60008151905061086381610b6e565b92915050565b60008135905061087881610b85565b92915050565b60006020828403121561089457610893610b06565b5b60006108a284828501610854565b91505092915050565b6000602082840312156108c1576108c0610b06565b5b60006108cf84828501610869565b91505092915050565b6108e181610a2a565b82525050565b60006108f282610a0e565b6108fc8185610a19565b935061090c818560208601610a72565b61091581610b0b565b840191505092915050565b600061092d600e83610a19565b915061093882610b1c565b602082019050919050565b6000610950601683610a19565b915061095b82610b45565b602082019050919050565b61096f81610a68565b82525050565b600060608201905061098a60008301866108d8565b61099760208301856108d8565b6109a46040830184610966565b949350505050565b600060208201905081810360008301526109c681846108e7565b905092915050565b600060208201905081810360008301526109e781610920565b9050919050565b60006020820190508181036000830152610a0781610943565b9050919050565b600081519050919050565b600082825260208201905092915050565b6000610a3582610a48565b9050919050565b60008115159050919050565b600073ffffffffffffffffffffffffffffffffffffffff82169050919050565b6000819050919050565b60005b83811015610a90578082015181840152602081019050610a75565b83811115610a9f576000848401525b50505050565b60006002820490506001821680610abd57607f821691505b60208210811415610ad157610ad0610ad7565b5b50919050565b7f4e487b7100000000000000000000000000000000000000000000000000000000600052602260045260246000fd5b600080fd5b6000601f19601f8301169050919050565b7f5265656e7472616e742063616c6c000000000000000000000000000000000000600082015250565b7f546f6b656e207472616e73666572206661696c65642e00000000000000000000600082015250565b610b7781610a3c565b8114610b8257600080fd5b50565b610b8e81610a68565b8114610b9957600080fd5b5056fea2646970667358221220b2e8b4a8770a26ee73addc38bca962107f3cf74da2341640424bbd779fc5728264736f6c63430008070033a2646970667358221220fa2a27ff1c90cd5fd875171efa5da03ea59d805c916baf4dac3588c803795be064736f6c63430008070033",
  "immutableReferences": {},
  "source": "//SPDX-License-Identifier: UNLICENSED\npragma solidity ^0.8.0;\n\nimport './TokenFactory.sol';\nimport './Swap.sol';\n\ncontract Wrapper {\n    using Address for address;\n    using SafeMath for uint256;\n    using Strings for string;\n\n    address private _admin;\n    address private _owner;\n\n    TokenFactory private _tokenFactory;\n\n    // EVENTS\n    event AdminChanged(address indexed previousAdmin, address indexed newAdmin);\n    event OwnerChanged(address indexed previousOwner, address indexed newOwner);\n    event FactoryCreated(address indexed factory_);\n    event SwapCreated(string name_, address swap_, address indexed token1_, address indexed token2_);\n    event FallbackCalled(address indexed sender, uint256 value);\n\n    constructor(address owner_) {\n        address admin_ = msg.sender;\n        setAdmin(admin_);\n        setOwner(owner_);\n    }\n\n    receive() external payable {\n        emit FallbackCalled(msg.sender, msg.value);\n    }\n\n    function createTokenFactory() external returns (TokenFactory) {\n        if(address(_tokenFactory) == address(0)){\n            TokenFactory tokenFactory_ = new TokenFactory();\n            emit FactoryCreated(address(tokenFactory_));\n            _tokenFactory = tokenFactory_;\n            return tokenFactory_;\n        }\n        return _tokenFactory;\n    }\n\n    function createSwapper(string memory name, Token token1_, Token token2_) external returns (Swap) {\n        Swap swap_ = new Swap(name, token1_, token2_);\n        emit SwapCreated(name, address(swap_), address(token1_), address(token2_));\n        return swap_;\n    }\n\n    function getTokenFactory() external view returns (TokenFactory) {\n        return _tokenFactory;\n    }\n\n    function getAdmin() public view returns (address) {\n        return address(_admin);\n    }\n\n    function getOwner() public view returns (address) {\n        return address(_owner);\n    }\n\n    function setAdmin(address admin_) internal {\n        _admin = admin_;\n        emit AdminChanged(_admin, admin_);\n    }\n\n    function setOwner(address owner_) internal {\n        _owner = owner_;\n        emit OwnerChanged(_owner, owner_);\n    }\n}\n",
  "sourcePath": "/Users/kloy/Development/Code/ava_labs_assignment/contracts/Wrapper.sol",
  "compiler": {
    "name": "solc",
    "version": "0.8.7+commit.e28d00a7.Emscripten.clang"
  },
  "schemaVersion": "3.4.2",
  "updatedAt": "2021-08-28T07:56:10.572Z",
  "networkType": "ethereum",
  "devdoc": {
    "kind": "dev",
    "methods": {},
    "version": 1
  },
  "userdoc": {
    "kind": "user",
    "methods": {},
    "version": 1
  }
}